:0406270002250000A8
:0305E50012058478
:0F05E800120645EF6002F531AD317F0112015867
:0205F70080EF93
:03000B0002037B72
:10037B00C0E0C0F0C083C082C0D075D000C000C048
:0D038B0001C002C003C004C005C006C007C9
:10039800758A18758CFC0526E52670020525C39418
:1003A80014E52594004009752500752600120452AD
:1003B800D007D006D005D004D003D002D001D00099
:0B03C800D0D0D082D083D0F0D0E03243
:1005B900EF1FAC0670011E4C600B007D027CC7DC8E
:0505C900FEDDFC80EBEB
:0105CE00220A
:03064B0030780004
:0B02A50024FFFDE434FFFC7F0A7E0014
:0802B0008E108F118D828C83EA
:1002B800E4751601F515F514F513D3E5829400E5F8
:1002C800839400402B858212E512D394004030AB12
:1002D80016AA15A914A813AE10AF11EE3395E0FDB8
:1002E800FC12003B8F168E158D148C13151280D8B6
:1002F800E58245837009751601F515F514F513AFF8
:0703080016AE15AD14AC1395
:01030F0022CB
:1005A100C2A5C2A68F80D2A77F017E001205B9C263
:0805B100A77F017E000205B9DD
:1004D8001200C6E47B0AFAF9F81200C6EB2430FFD2
:1004E800C2A5D2A68F80D2A77F017E001205B9C20D
:0804F800A77F017E000205B997
:1005F9007F381205A17F0C1205A17F061205A17F84
:04060900010205A144
:100548008F288D29E528B40105E529148009E528B7
:0E055800B4020AE529243F4480FF1205A122C7
:0A0632008B30120548AF300204E8D7
:060500008B1D8A1E891FFD
:10050600120548E4F520AB1DAA1EA91F8520827599
:0F051600830012000EFF60071204E8052080E743
:0105250022B3
:040482008A198B1A2E
:10048600120548851B1CE51CD39400401BE51C1275
:1004960002A5A804A905AA06AB07AE19AF1AE4FC83
:0804A600FD1204D8151C80DED4
:0104AE00222B
:040310008A0A8B0BBF
:10031400120548D3E50B9400E50A648094804007F5
:100324007F2B1204E88021C3E50A64809480501274
:100334007F2D1204E8C3E4950BF50EE4950AF50D40
:10034400800CE50B450A7006850A0D850B0E850C9D
:100354000FE50FD39400401EE50F1202A5A804A9CF
:1003640005AA06AB07AE0DAF0EEE3395E0FDFC1209
:0603740004D8150F80DB28
:01037A002260
:0403D3008A218B22CE
:1003D7007BFF7A06794B120500752401E524F4604A
:1003E70039E52425E025E0FFAE21E522A8070880AE
:1003F70005CEC313CE13D8F9540FF523C3940A506F
:1004070006E5232430800BE523C3940A4008E5233F
:0A0417002437FF1204E8152480C208
:0104210022B8
:09063C00D2A1D2A0C2A0C2A122E9
:07000300C2A0D2A1D2A0228D
:0204AF00AD0797
:1004B100E4FB7E007480A803088006CEA2E713CE79
:1004C10013D8F8FFEDF582EF558224FF92A0D2A157
:0604D100C2A10BBB08DC18
:0104D7002202
:10056600E4FFD2A0FED2A130A00DA80674800880B8
:0D05760002C313D8FC4207C2A10EBE08E864
:010583002255
:0C061B00C2A1EF24FF92A0D2A1C2A12234
:0D060D00C2A1D2A0D2A1A2A0E433FFC2A1DD
:01061A0022BD
:100526008F2A8D2B12063C7FA01204AF12060DAF48
:100536002A1204AF12060DAF2B1204AF12060D02DB
:020546000003B0
:020422008F2C1D
:1004240012063C7FA01204AF12060DAF2C1204AFCB
:1004340012060D12063C7FA11204AF12060D12051E
:0D044400668F2D7F0112061B120003AF2DE5
:010451002288
:06062B00012F00012E006A
:1005CF00E4FF20B1010F20B0027F0220B2027F03AF
:0505DF0020B3027F04BF
:0105E40022F4
:10045200AE2E1205CF8F2EBE0107E52E7003752F2B
:1004620001BE0207E52E7003752F02BE0307E52EBB
:0F0472007003752F03BE0407E52E7003752F046A
:010481002258
:05064500E4AF2FF52FCA
:01064A00228D
:10015800EF14B40800505490016D75F003A4C583E2
:1001680025F0C5837302018502018902019102010C
:100178009502019D0201A10201A90201ADD2A2804E
:1001880002C2A2D2A3D2A48022D2A28002C2A2C258
:10019800A3D2A48016D2A28002C2A2D2A3C2A480F3
:1001A8000AD2A28002C2A2C2A3C2A4EDB40A00501D
:1001B800559001C0F828287302020B0201DE0201E3
:1001C800E30201E80201ED0201F20201F70201FC7B
:1001D800020201020206758006802B75805B80266C
:1001E80075804F8021758066801C75806D801775BD
:1001F800807D8012758007800D75807F80087580EE
:100208006F800375803F7F017E001205B9E4F58099
:0102180022C3
:100584005389F0438901D28CC28D758A18758CFC0D
:0D059400D2A9D2AF53B7FD43B702D2B922AE
:03000000020219E0
:0C021900787FE4F6D8FD758131020260A8
:10000E00BB010CE58229F582E5833AF583E02250A7
:10001E0006E92582F8E622BBFE06E92582F8E222F1
:0D002E00E58229F582E5833AF583E493220B
:10003B00E88FF0A4CC8BF0A42CFCE98EF0A42CFC64
:10004B008AF0EDA42CFCEA8EF0A4CDA8F08BF0A4E2
:10005B002DCC3825F0FDE98FF0A42CCD35F0FCEB41
:10006B008EF0A4FEA9F0EB8FF0A4CFC5F02ECD3906
:0F007B00FEE43CFCEAA42DCE35F0FDE43CFC2273
:10008A0075F008758200EF2FFFEE33FECD33CDCC2D
:10009A0033CCC58233C5829BED9AEC99E5829840B0
:1000AA000CF582EE9BFEED9AFDEC99FC0FD5F0D68D
:1000BA00E4CEFBE4CDFAE4CCF9A88222B800C1B9B7
:1000CA000059BA002DEC8BF084CFCECDFCE5F0CBF5
:1000DA00F97818EF2FFFEE33FEED33FDEC33FCEB2E
:1000EA0033FB10D703994004EB99FB0FD8E5E4F9E9
:1000FA00FA227818EF2FFFEE33FEED33FDEC33FCD6
:10010A00C933C910D7059BE99A4007EC9BFCE99AC9
:10011A00F90FD8E0E4C9FAE4CCFB2275F010EF2F0E
:10012A00FFEE33FEED33FDCC33CCC833C810D7070E
:10013A009BEC9AE899400AED9BFDEC9AFCE899F849
:0E014A000FD5F0DAE4CDFBE4CCFAE4C8F922DC
:100225000205E5E493A3F8E493A34003F68001F205
:1002350008DFF48029E493A3F85407240CC8C333DA
:10024500C4540F4420C8834004F456800146F6DFA9
:10025500E4800B0102040810204080900627E47E0C
:10026500019360BCA3FF543F30E509541FFEE4939E
:10027500A360010ECF54C025E060A840B8E493A365
:10028500FAE493A3F8E493A3C8C582C8CAC583CA90
:10029500F0A3C8C582C8CAC583CADFE9DEE780BE48
:0106310000C8
:00000001FF
