:030BE800202000CA
:060BC900012E00012D00C9
:10000E00E530B4020B052DE52D75F0078485F02D36
:10001E00E530640460030201AE740F252DF806E589
:10002E002D7013740F252DF8E6D3648094E35003DE
:10003E000201AE0201A7E52D6401706F740F252D2C
:10004E00F8E6D36480948C4007740F252DF8760162
:10005E00E51064046011E5106406600BE510640998
:10006E006005E510B40B0ED3E5116480949E500329
:10007E000201AE8030E510640260030201AEE50FAE
:10008E0075F00412048DAFF0EF700ED3E51164809D
:10009E00949D50030201AE800CD3E5116480949CB4
:1000AE0050030201AE7511010201AEE52D6402602E
:1000BE000302015AE51064016023E5106403601D1C
:1000CE00E51064056017E51064076011E51064081B
:1000DE00600BE510640A6005E510B40C12740F2570
:1000EE002DF8E6D36480949F50030201AE806DE537
:1000FE001064046011E5106406600BE5106409607D
:10010E0005E510B40B12740F252DF8E6D364809418
:10011E009E50030201AE8044E510640260030201AA
:10012E00AEE50F75F00412048DAFF0EF700F740F83
:10013E00252DF8E6D36480949D4065801F740F25AD
:10014E002DF8E6D36480949C40568010E52DB403C0
:10015E0014240FF8E6D3648094874044740F252D41
:10016E00F87601803BE52DB4040D240FF8E6D36438
:10017E00809497402B8022E52DB4050D240FF8E6D0
:10018E00D3648094BB40198010E52DB40612240F61
:10019E00F8E6D3648094BB4007740F252DF8E4F67F
:1001AE00E5306403600302036A740F252DF816E52B
:1001BE002D701A740F252DF8E6C3648094804003C9
:1001CE0002036A740F252DF8766302036AE52D6427
:1001DE0001706F740F252DF8E6C36480948150076B
:1001EE00740F252DF8760CE51064046011E510648B
:1001FE0006600BE51064096005E510B40B0ED3E53F
:10020E00116480949E500302036A8030E5106402EC
:10021E00600302036AE50F75F00412048DAFF0EF70
:10022E00700ED3E5116480949D500302036A800C16
:10023E00D3E5116480949C500302036A7511010288
:10024E00036AE52D6402600302030FE5106401608A
:10025E0023E5106403601DE51064056017E5106466
:10026E00076011E5106408600BE510640A6005E58F
:10027E0010B40C1A740F252DF8E6C36480948140D7
:10028E000302036A740F252DF8761F02036AE51028
:10029E0064046011E5106406600BE51064096005E6
:1002AE00E510B40B1A740F252DF8E6C36480948103
:1002BE00400302036A740F252DF8761E02036AE5C9
:1002CE00106402600302036AE50F75F00412048DD8
:1002DE00AFF0EF7016740F252DF8E6C3648094818D
:1002EE00507A740F252DF8761D8071740F252DF818
:1002FE00E6C3648094815064740F252DF8761C80BB
:10030E005BE52DB40314240FF8E6C364809481508A
:10031E004B740F252DF876078042E52DB404142476
:10032E000FF8E6C3648094805032740F252DF87652
:10033E00178029E52DB4050D240FF8E6C3648094CB
:10034E008050198010E52DB40612240FF8E6C36410
:10035E008094805007740F252DF8763B1208CEE559
:10036E002D7014E52FB4010F7BFF7A0B79E87D0316
:10037E007F01120A8C8011E50FFB3395E0FA751A96
:10038E00027D037F01120A37E52DB40114E52FB467
:10039E00010F7BFF7A0B79E87D067F01120A8C80B4
:1003AE0011E510FB3395E0FA751A027D067F0112F6
:1003BE000A37E52DB40214E52FB4010F7BFF7A0B3B
:1003CE0079E87D097F01120A8C8011E511FB3395C6
:1003DE00E0FA751A027D097F01120A37E52DB40382
:1003EE0010E52FB4010B7B207D107F01120BD980FD
:1003FE0011E512FB3395E0FA751A017D107F01129B
:10040E000A37E52DB40414E52FB4010F7BFF7A0BE8
:10041E0079E87D017F02120A8C8011E513FB33957A
:10042E00E0FA751A027D017F02120A37E52DB40536
:10043E0014E52FB4010F7BFF7A0B79E87D047F0260
:10044E00120A8C8011E514FB3395E0FA751A027DC1
:10045E00047F02120A37E52DB40612E52FB4010D02
:10046E007BFF7A0B79E87D077F02020A8CE515FB8C
:0F047E003395E0FA751A027D077F02120A3722C2
:1009FC00120B69120BE3120873120AEE1208148F11
:100A0C0030E530B40113E52E7007752E01F52D80FD
:100A1C0008E52EB40103E4F52EE52E1460080470ED
:0B0A2C00DB1205F980D612000E80D10D
:03000B000209786F
:09097800C0E0C0D075D000C0073A
:10098100758A18758CFC052CE52C7002052BC39417
:10099100F4E52B9401401C752B00752C00E52EB459
:1009A100010EE52F70047F0180027F008F2F8003ED
:0309B100752F009F
:0709B400D007D0D0D0E032E3
:100B5300EF1FAC0670011E4C600B007D027CC7DCEE
:050B6300FEDDFC80EB4B
:010B6800226A
:1008140020B1147F147E00120B5330B1FD7F147E7F
:1008240000120B537F012220B0147F147E00120BA0
:100834005330B0FD7F147E00120B537F022220B28E
:10084400147F147E00120B5330B2FD7F147E00120D
:100854000B537F032220B3147F147E00120B5330FA
:0F086400B3FD7F147E00120B537F04227F00220E
:030BEB003078005F
:0B073E0024FFFDE434FFFC7F0A7E0076
:080749008E1C8F1D8D828C8334
:10075100E4752201F521F520F51FD3E5829400E52A
:10076100839400402B85821EE51ED394004030AB5C
:1007710022AA21A920A81FAE1CAF1DEE3395E0FDD2
:10078100FC1204DC8F228E218D208C1F151E80D837
:10079100E58245837009752201F521F520F51FAF2A
:0707A10022AE21AD20AC1FC8
:0107A800222E
:100B0B00C2A5C2A68F80D2A77F017E00120B53C253
:080B1B00A77F017E00020B53CD
:100A6400120567E47B0AFAF9F8120567EB2430FFF4
:100A7400C2A5D2A68F80D2A77F017E00120B53C2DB
:080A8400A77F017E00020B5365
:100B69007F38120B0B7F0C120B0B7F06120B0B7FBE
:040B790001020B0B5F
:100AB2008F1C8D1DE51CB40105E51D148009E51C84
:0E0AC200B4020AE51D243F4480FF120B0B22F4
:0A0BD9008B16120AB2AF16020A745E
:060A8C008B168A17891881
:100A9200120AB2E4F519AB16AA17A91885198275BC
:0F0AA20083001204AFFF6007120A74051980E782
:010AB1002222
:040A37008A188B1975
:100A3B00120AB2851A1BE51BD39400401BE51B124F
:100A4B00073EA804A905AA06AB07AE18AF19E4FC2C
:080A5B00FD120A64151B80DE88
:010A63002270
:0407A9008A258B26EC
:1007AD00120AB2D3E5269400E525648094804007B3
:1007BD007F2B120A748021C3E5256480948050122A
:1007CD007F2D120A74C3E49526F529E49525F528A5
:1007DD00800CE52645257006852528852629852743
:1007ED002AE52AD39400401EE52A12073EA804A943
:1007FD0005AA06AB07AE28AF29EE3395E0FDFC1236
:06080D000A64152A80DBDD
:0108130022C2
:040929008A318B3252
:10092D007BFF7A0B79EB120A8C753401E534F46098
:10093D0039E53425E025E0FFAE31E532A807088022
:10094D0005CEC313CE13D8F9540FF533C3940A5003
:10095D0006E5332430800BE533C3940A4008E533B4
:0A096D002437FF120A74153480C20B
:01097700225D
:06000300446174653A003F
:090BCF000708070707060E1E00C7
:050BE300C2B5C2B622FC
:100B2300E4FEA806EF088002C313D8FC1392B4D2E4
:070B3300B6C2B60EBE08EBCE
:010B3A002298
:100B3B00E4FEA806EF088002C313D8FC1392B4D2CC
:070B4B00B6C2B60EBE08EBB6
:010B52002280
:070B7D00120BA4AD077F8CF1
:0D0B8400D2B5120B23AF05120B3BC2B522F8
:100AD000E4FFC2B6FED2B630B40DA8067401088099
:0D0AE00002C333D8FC4207C2B60EBE08E8C0
:010AED0022E6
:100B9100D2B5EF4401FF120B23D2B4120AD0C2B571
:020BA100C2B4DC
:010BA300222F
:030BB700120B918D
:0E0BBA00EFC4540F75F00AA4FEEF540F2EFF87
:010BC800220A
:100BA400EF75F00A84C454F0FEEF75F00A84E5F0A2
:020BB4002EFF12
:010BB600221C
:10087300E4FD7F8E120B84AF08120B7DAF09120BC0
:10088300A4AD077F88120B84AF0A120BA4AD077FB8
:1008930086120B84AF0B120BA4AD077F8A120B8455
:1008A300AF0C120BA4AD077F84120B84AF0D120B98
:1008B300A4AD077F82120B84AF0E120BA4AD077F8A
:0B08C30080120B847D807F8E020B846E
:1009BB007F8C120BB78F0F7F88120BB78F107F8630
:1009CB00120B91120BBA8F117F8A120B91120BBA69
:1009DB008F127F84120B91120BBA8F137F82120B23
:1009EB0091120BBA8F147F80120B91120BBA8F15C9
:0109FB0022D9
:1005F900751A027B147A007D017F01120A377B2D5F
:100609007D057F01120BD97B2D7D087F01120BD946
:100619007BFF7A0079037D0B7F01120A8C7B3A7D7F
:10062900037F02120BD97B3A7D067F02120BD91286
:1006390009BBE50FFB3395E0FA751A027D037F01CB
:10064900120A37E510FB3395E0FA751A027D067F29
:1006590001120A37E511FB3395E0FA751A027D0993
:100669007F01120A37E512FB3395E0FA751A017D0D
:10067900107F01120A37E513FB3395E0FA751A0268
:100689007D017F02120A37E514FB3395E0FA751AEA
:10069900027D047F02120A37E515FB3395E0FA75EE
:0906A9001A027D077F02020A37E4
:1008CE00E4FD7F8E120B84AF0F120B7DAF10120B57
:1008DE00A4AD077F88120B84AF11120BA4AD077F56
:1008EE0086120B84AF12120BA4AD077F8A120B84F3
:1008FE00AF13120BA4AD077F84120B84AF14120B2F
:10090E00A4AD077F82120B84AF15120BA4AD077F27
:0B091E0080120B847D807F8E020B8412
:100AEE005389F0438901D28CC28D758A18758CFC9E
:0D0AFE00D2A9D2AF53B7FD43B702D2B9223F
:030000000206B243
:0C06B200787FE4F6D8FD7581340206F96B
:10048D00C2D530F707B2D563F0FF05F030E70CB2F7
:10049D00D5F4048463F0FF05F080018430D502F4B7
:0204AD00042227
:1004AF00BB010CE58229F582E5833AF583E0225002
:1004BF0006E92582F8E622BBFE06E92582F8E2224C
:0D04CF00E58229F582E5833AF583E4932266
:1004DC00E88FF0A4CC8BF0A42CFCE98EF0A42CFCBF
:1004EC008AF0EDA42CFCEA8EF0A4CDA8F08BF0A43D
:1004FC002DCC3825F0FDE98FF0A42CCD35F0FCEB9C
:10050C008EF0A4FEA9F0EB8FF0A4CFC5F02ECD3960
:0F051C00FEE43CFCEAA42DCE35F0FDE43CFC22CD
:10052B0075F008758200EF2FFFEE33FECD33CDCC87
:10053B0033CCC58233C5829BED9AEC99E58298400A
:10054B000CF582EE9BFEED9AFDEC99FC0FD5F0D6E7
:10055B00E4CEFBE4CDFAE4CCF9A88222B800C1B911
:10056B000059BA002DEC8BF084CFCECDFCE5F0CB4F
:10057B00F97818EF2FFFEE33FEED33FDEC33FCEB88
:10058B0033FB10D703994004EB99FB0FD8E5E4F943
:10059B00FA227818EF2FFFEE33FEED33FDEC33FC30
:1005AB00C933C910D7059BE99A4007EC9BFCE99A24
:1005BB00F90FD8E0E4C9FAE4CCFB2275F010EF2F69
:1005CB00FFEE33FEED33FDCC33CCC833C810D70769
:1005DB009BEC9AE899400AED9BFDEC9AFCE899F8A4
:0E05EB000FD5F0DAE4CDFBE4CCFAE4C8F92237
:1006BE000209FCE493A3F8E493A34003F68001F24D
:1006CE0008DFF48029E493A3F85407240CC8C3333D
:1006DE00C4540F4420C8834004F456800146F6DF0C
:1006EE00E4800B0102040810204080900BC9E47EC8
:1006FE00019360BCA3FF543F30E509541FFEE49301
:10070E00A360010ECF54C025E060A840B8E493A3C7
:10071E00FAE493A3F8E493A3C8C582C8CAC583CAF2
:10072E00F0A3C8C582C8CAC583CADFE9DEE780BEAA
:010BD800001C
:00000001FF
