:030C33002020007E
:090BD900012F00012E00012D0086
:10000E00E531B4020B052EE52E75F0078485F02E32
:10001E00E531640460030201AE740F252EF806E587
:10002E002E7013740F252EF8E6D3648094E35003DC
:10003E000201AE0201A7E52E6401706F740F252E2A
:10004E00F8E6D36480948C4007740F252EF8760161
:10005E00E51064046011E5106406600BE510640998
:10006E006005E510B40B0ED3E5116480949E500329
:10007E000201AE8030E510640260030201AEE50FAE
:10008E0075F00412048DAFF0EF700ED3E51164809D
:10009E00949D50030201AE800CD3E5116480949CB4
:1000AE0050030201AE7511010201AEE52E6402602D
:1000BE000302015AE51064016023E5106403601D1C
:1000CE00E51064056017E51064076011E51064081B
:1000DE00600BE510640A6005E510B40C12740F2570
:1000EE002EF8E6D36480949F50030201AE806DE536
:1000FE001064046011E5106406600BE5106409607D
:10010E0005E510B40B12740F252EF8E6D364809417
:10011E009E50030201AE8044E510640260030201AA
:10012E00AEE50F75F00412048DAFF0EF700F740F83
:10013E00252EF8E6D36480949D4065801F740F25AC
:10014E002EF8E6D36480949C40568010E52EB403BE
:10015E0014240FF8E6D3648094874044740F252E40
:10016E00F87601803BE52EB4040D240FF8E6D36437
:10017E00809497402B8022E52EB4050D240FF8E6CF
:10018E00D3648094BB40198010E52EB40612240F60
:10019E00F8E6D3648094BB4007740F252EF8E4F67E
:1001AE00E5316403600302036A740F252EF816E529
:1001BE002E701A740F252EF8E6C3648094804003C7
:1001CE0002036A740F252EF8766302036AE52E6425
:1001DE0001706F740F252EF8E6C36480948150076A
:1001EE00740F252EF8760CE51064046011E510648A
:1001FE0006600BE51064096005E510B40B0ED3E53F
:10020E00116480949E500302036A8030E5106402EC
:10021E00600302036AE50F75F00412048DAFF0EF70
:10022E00700ED3E5116480949D500302036A800C16
:10023E00D3E5116480949C500302036A7511010288
:10024E00036AE52E6402600302030FE51064016089
:10025E0023E5106403601DE51064056017E5106466
:10026E00076011E5106408600BE510640A6005E58F
:10027E0010B40C1A740F252EF8E6C36480948140D6
:10028E000302036A740F252EF8761F02036AE51027
:10029E0064046011E5106406600BE51064096005E6
:1002AE00E510B40B1A740F252EF8E6C36480948102
:1002BE00400302036A740F252EF8761E02036AE5C8
:1002CE00106402600302036AE50F75F00412048DD8
:1002DE00AFF0EF7016740F252EF8E6C3648094818C
:1002EE00507A740F252EF8761D8071740F252EF816
:1002FE00E6C3648094815064740F252EF8761C80BA
:10030E005BE52EB40314240FF8E6C3648094815089
:10031E004B740F252EF876078042E52EB404142474
:10032E000FF8E6C3648094805032740F252EF87651
:10033E00178029E52EB4050D240FF8E6C3648094CA
:10034E008050198010E52EB40612240FF8E6C3640F
:10035E008094805007740F252EF8763B120929E5FC
:10036E002E7014E530B4010F7BFF7A0C79337D03C8
:10037E007F01120AD48011E50FFB3395E0FA751A4E
:10038E00027D037F01120A57E52EB40114E530B445
:10039E00010F7BFF7A0C79337D067F01120AD48020
:1003AE0011E510FB3395E0FA751A027D067F0112F6
:1003BE000A57E52EB40214E530B4010F7BFF7A0C18
:1003CE0079337D097F01120AD48011E511FB339533
:1003DE00E0FA751A027D097F01120A57E52EB40361
:1003EE0010E530B4010B7B207D107F01120C2480B0
:1003FE0011E512FB3395E0FA751A017D107F01129B
:10040E000A57E52EB40414E530B4010F7BFF7A0CC5
:10041E0079337D017F02120AD48011E513FB3395E7
:10042E00E0FA751A027D017F02120A57E52EB40515
:10043E0014E530B4010F7BFF7A0C79337D047F0213
:10044E00120AD48011E514FB3395E0FA751A027D79
:10045E00047F02120A57E52EB40612E530B4010DE0
:10046E007BFF7A0C79337D077F02020AD4E515FBF8
:0F047E003395E0FA751A027D077F02120A5722A2
:10087300120BB1120C2E1208CE120B361208148F63
:1008830031E531B40113E52F7007752F01F52E8083
:1008930008E52FB40103E4F52FE52F146008047075
:1008A300081205F9800312000EE531B4030CE52D9F
:1008B30070047F0180027F008F2DE52D70BEE5312E
:0B08C30060BA7F327E00120AAC80B1E8
:03000B000209D314
:0909D300C0E0C0D075D000C007DF
:1009DC00758A18758CFC052CE52C7002052BC394BC
:1009EC00F4E52B9401401C752B00752C00E52FB4FD
:1009FC00010EE53070047F0180027F008F30800390
:030A0C0075300042
:070A0F00D007D0D0D0E03287
:100B9B00EF1FAC0670011E4C600B007D027CC7DCA6
:050BAB00FEDDFC80EB03
:010BB0002222
:1008140020B1147F147E00120B9B30B1FD7F147E37
:1008240000120B9B7F012220B0147F147E00120B58
:100834009B30B0FD7F147E00120B9B7F022220B2FE
:10084400147F147E00120B9B30B2FD7F147E0012C5
:100854000B9B7F032220B3147F147E00120B9B306A
:0F086400B3FD7F147E00120B9B7F04227F0022C6
:030C360030780013
:0B073E0024FFFDE434FFFC7F0A7E0076
:080749008E1C8F1D8D828C8334
:10075100E4752201F521F520F51FD3E5829400E52A
:10076100839400402B85821EE51ED394004030AB5C
:1007710022AA21A920A81FAE1CAF1DEE3395E0FDD2
:10078100FC1204DC8F228E218D208C1F151E80D837
:10079100E58245837009752201F521F520F51FAF2A
:0707A10022AE21AD20AC1FC8
:0107A800222E
:100B5300C2A5C2A68F80D2A77F017E00120B9BC2C3
:080B6300A77F017E00020B9B3D
:100A8400120567E47B0AFAF9F8120567EB2430FFD4
:100A9400C2A5D2A68F80D2A77F017E00120B9BC273
:080AA400A77F017E00020B9BFD
:100BB1007F38120B537F0C120B537F06120B537F9E
:040BC10001020B53CF
:100AFA008F1C8D1DE51CB40105E51D148009E51C3C
:0E0B0A00B4020AE51D243F4480FF120B532263
:0A0C24008B16120AFAAF16020A94AA
:060AD4008B168A17891839
:100ADA00120AFAE4F519AB16AA17A918851982752C
:0F0AEA0083001204AFFF6007120A94051980E71A
:010AF90022DA
:040A57008A188B1955
:100A5B00120AFA851A1BE51BD39400401BE51B12E7
:100A6B00073EA804A905AA06AB07AE18AF19E4FC0C
:080A7B00FD120A84151B80DE48
:010A83002250
:0407A9008A258B26EC
:1007AD00120AFAD3E5269400E5256480948040076B
:1007BD007F2B120A948021C3E5256480948050120A
:1007CD007F2D120A94C3E49526F529E49525F52885
:1007DD00800CE52645257006852528852629852743
:1007ED002AE52AD39400401EE52A12073EA804A943
:1007FD0005AA06AB07AE28AF29EE3395E0FDFC1236
:06080D000A84152A80DBBD
:0108130022C2
:040984008A328B33F5
:100988007BFF7A0C7936120AD4753501E535F460A7
:1009980039E53525E025E0FFAE32E533A8070880C4
:1009A80005CEC313CE13D8F9540FF534C3940A50A7
:1009B80006E5342430800BE534C3940A4008E53456
:0A09C8002437FF120A94153580C28F
:0109D2002202
:06000300446174653A003F
:090BE2000708070707060E1E00B4
:050C2E00C2B5C2B622B0
:100B6B00E4FEA806EF088002C313D8FC1392B4D29C
:070B7B00B6C2B60EBE08EB86
:010B82002250
:100B8300E4FEA806EF088002C313D8FC1392B4D284
:070B9300B6C2B60EBE08EB6E
:010B9A002238
:070BC500120BFFAD077F8C4E
:0D0BCC00D2B5120B6BAF05120B83C2B52220
:100B1800E4FFC2B6FED2B630B40DA8067401088050
:0D0B280002C333D8FC4207C2B60EBE08E877
:010B3500229D
:100BEC00D2B5EF4401FF120B6BD2B4120B18C2B585
:020BFC00C2B481
:010BFE0022D4
:030C1200120BECD6
:0E0C1500EFC4540F75F00AA4FEEF540F2EFF2B
:010C230022AE
:100BFF00EF75F00A84C454F0FEEF75F00A84E5F047
:020C0F002EFFB6
:010C110022C0
:1008CE00E4FD7F8E120BCCAF08120BC5AF09120BD5
:1008DE00FFAD077F88120BCCAF0A120BFFAD077F5F
:1008EE0086120BCCAF0B120BFFAD077F8A120BCC0F
:1008FE00AF0C120BFFAD077F84120BCCAF0D120B9A
:10090E00FFAD077F82120BCCAF0E120BFFAD077F30
:0B091E0080120BCC7D807F8E020BCC82
:100A16007F8C120C128F0F7F88120C128F107F861C
:100A2600120BEC120C158F117F8A120BEC120C159F
:100A36008F127F84120BEC120C158F137F82120B10
:100A4600EC120C158F147F80120BEC120C158F15FF
:010A5600227D
:1005F900751A027B147A007D017F01120A577B2D3F
:100609007D057F01120C247B2D7D087F01120C24AE
:100619007BFF7A0079037D0B7F01120AD47B3A7D37
:10062900037F02120C247B3A7D067F02120C2412EE
:100639000A16E50FFB3395E0FA751A027D037F016F
:10064900120A57E510FB3395E0FA751A027D067F09
:1006590001120A57E511FB3395E0FA751A027D0973
:100669007F01120A57E512FB3395E0FA751A017DED
:10067900107F01120A57E513FB3395E0FA751A0248
:100689007D017F02120A57E514FB3395E0FA751ACA
:10069900027D047F02120A57E515FB3395E0FA75CE
:0906A9001A027D077F02020A57C4
:10092900E4FD7F8E120BCCAF0F120BC5AF10120B6B
:10093900FFAD077F88120BCCAF11120BFFAD077FFC
:1009490086120BCCAF12120BFFAD077F8A120BCCAC
:10095900AF13120BFFAD077F84120BCCAF14120B30
:10096900FFAD077F82120BCCAF15120BFFAD077FCE
:0B09790080120BCC7D807F8E020BCC27
:100B36005389F0438901D28CC28D758A18758CFC55
:0D0B4600D2A9D2AF53B7FD43B702D2B922F6
:040AAC008E168F17FC
:100AB000E4F518F519C3E5199517E51895165013BF
:100AC000B2A57F017E00120B9B0519E51970E605A2
:030AD0001880E2A9
:010AD3002200
:030000000206B243
:0C06B200787FE4F6D8FD7581350206F96A
:10048D00C2D530F707B2D563F0FF05F030E70CB2F7
:10049D00D5F4048463F0FF05F080018430D502F4B7
:0204AD00042227
:1004AF00BB010CE58229F582E5833AF583E0225002
:1004BF0006E92582F8E622BBFE06E92582F8E2224C
:0D04CF00E58229F582E5833AF583E4932266
:1004DC00E88FF0A4CC8BF0A42CFCE98EF0A42CFCBF
:1004EC008AF0EDA42CFCEA8EF0A4CDA8F08BF0A43D
:1004FC002DCC3825F0FDE98FF0A42CCD35F0FCEB9C
:10050C008EF0A4FEA9F0EB8FF0A4CFC5F02ECD3960
:0F051C00FEE43CFCEAA42DCE35F0FDE43CFC22CD
:10052B0075F008758200EF2FFFEE33FECD33CDCC87
:10053B0033CCC58233C5829BED9AEC99E58298400A
:10054B000CF582EE9BFEED9AFDEC99FC0FD5F0D6E7
:10055B00E4CEFBE4CDFAE4CCF9A88222B800C1B911
:10056B000059BA002DEC8BF084CFCECDFCE5F0CB4F
:10057B00F97818EF2FFFEE33FEED33FDEC33FCEB88
:10058B0033FB10D703994004EB99FB0FD8E5E4F943
:10059B00FA227818EF2FFFEE33FEED33FDEC33FC30
:1005AB00C933C910D7059BE99A4007EC9BFCE99A24
:1005BB00F90FD8E0E4C9FAE4CCFB2275F010EF2F69
:1005CB00FFEE33FEED33FDCC33CCC833C810D70769
:1005DB009BEC9AE899400AED9BFDEC9AFCE899F8A4
:0E05EB000FD5F0DAE4CDFBE4CCFAE4C8F92237
:1006BE00020873E493A3F8E493A34003F68001F2D7
:1006CE0008DFF48029E493A3F85407240CC8C3333D
:1006DE00C4540F4420C8834004F456800146F6DF0C
:1006EE00E4800B0102040810204080900BD9E47EB8
:1006FE00019360BCA3FF543F30E509541FFEE49301
:10070E00A360010ECF54C025E060A840B8E493A3C7
:10071E00FAE493A3F8E493A3C8C582C8CAC583CAF2
:10072E00F0A3C8C582C8CAC583CADFE9DEE780BEAA
:010BEB000009
:00000001FF
