:07000300010A0002080000E1
:0601520075A0FE12017B06
:1001580012009A8F0BE50BB40105750A0180F1E5D1
:100168000BB40205750A0280E7E50BB403E2750AD1
:010178000383
:0201790080DD27
:03000B000200FBF5
:0B00FB00C0E0C0D075D000C000C007FE
:10010600758A18758CFC0509E50970020508C39403
:10011600C8E5089400402C750800750900E50AB486
:10012600010FAFA07801EF08800103D8FDF5A0808C
:1001360012E50AB4020DAFA07801EF08800123D8BA
:03014600FDF5A024
:09014900D007D000D0D0D0E03284
:10017B005389F0438901D28CC28D758A18758CFC1A
:0D018B00D2A9D2AF53B7FD43B702D2B922BB
:10009A00E4F50C20B1137F14FE12019830B1FD7FF4
:1000AA00147E00120198750C0120B0147F147E0092
:1000BA0012019830B0FD7F147E00120198750C026F
:1000CA0020B2147F147E0012019830B2FD7F147E94
:1000DA0000120198750C0320B3147F147E001201DC
:1000EA009830B3FD7F147E00120198750C04AF0C92
:0100FA0022E3
:10019800EF1FAC0670011E4C600B007D027CC7DCB3
:0501A800FEDDFC80EB10
:0101AD00222F
:0300000002000EED
:0C000E00787FE4F6D8FD75810C020055E7
:10001A00020152E493A3F8E493A34003F68001F2A9
:10002A0008DFF48029E493A3F85407240CC8C333E7
:10003A00C4540F4420C8834004F456800146F6DFB6
:10004A00E4800B0102040810204080900003E47E43
:10005A00019360BCA3FF543F30E509541FFEE493AB
:10006A00A360010ECF54C025E060A840B8E493A372
:10007A00FAE493A3F8E493A3C8C582C8CAC583CA9D
:10008A00F0A3C8C582C8CAC583CADFE9DEE780BE55
:01000A0000F5
:00000001FF
