:0900E600E4FD7F0112000380F724
:1000C400EF1FAC0670011E4C600B007D027CC7DC88
:0500D400FEDDFC80EBE5
:0100D9002204
:10000300EF14B40800505490001875F003A4C5838E
:1000130025F0C5837302003002003402003C020065
:100023004002004802004C020054020058D2A28051
:1000330002C2A2D2A3D2A48022D2A28002C2A2C2AE
:10004300A3D2A48016D2A28002C2A2D2A3C2A48049
:100053000AD2A28002C2A2C2A3C2A4EDB40A005073
:100063005590006BF82828730200B602008902003D
:100073008E02009302009802009D0200A20200A7D4
:100083000200AC0200B1758006802B75805B802670
:1000930075804F8021758066801C75806D80177513
:1000A300807D8012758007800D75807F8008758044
:1000B3006F800375803F7F017E001200C4E4F580EA
:0100C300221A
:030000000200DA21
:0C00DA00787FE4F6D8FD7581070200E68F
:00000001FF
