:1009990045727220202000202020202020202020A5
:1009A9002020202020202000543A00544C3A0054A2
:0C09B900483A004821004C21002020009A
:040C180002260000B0
:10045500120BEA120B28E4FF12093C8F117F0112DF
:10046500093C8F10D3E511648094FD5016C3E51047
:1004750064809449400DD3E5106480F8E5116480EB
:10048500985022751123751012AD11E4FF120A8FD1
:100495007F057E00120B92AD107F01120A8F7F053A
:1004A5007E00120B92120BBEBF011C7BFF7A0979ED
:1004B500997D017F01120A697BFF7A0979A07D0187
:1004C5007F02120A6980DE120C368F127BFF7A09D1
:1004D50079B17D017F01120A697BFF7A0979B47DC3
:1004E500077F02120A697BFF7A0979B87D017F02CD
:1004F500120A69E5126072B401100511C3E51164B1
:100505008094FD404875117D8043E512B4021315B2
:1005150011D3E5106480F8E511648098502F05111A
:10052500802BE512B403130510C3E5116480F8E5CB
:1005350010648098401715108013E512B4040E1549
:1005450010D3E5106480944950037510C9AD11E4CA
:10055500FF120A8F7F057E00120B92AD107F0112EC
:100565000A8F7F057E00120B92E511FB3395E0FAA9
:100575007517027D047F021207ACE510FB3395E089
:10058500FA7517027D0A7F021207AC120B45EF6060
:10059500FA1209C58F0B8E0A8D098C08E4FFFEFD42
:1005A500FCAB0BAA0AA909A8081201B4501E7B2DA1
:1005B5007D037F01120C23AF0BAE0AAD09AC081207
:1005C500022D8F0F8E0E8D0D8C0C80157B2B7D03D0
:1005D5007F01120C23850B0F850A0E85090D8508F1
:1005E5000CAF0FAE0EAD0DAC0C12027CAB07AA061C
:1005F5007517027D047F0112096C7B2E7D067F0134
:10060500120C23E4FFFE7DC87C42AB0FAA0EA90D98
:10061500A80C12000E12027CE47B64FAF9F81203AE
:10062500B57517027D077F0112096CAC11EC12023A
:1006350048AB0BAA0AA909A8081201B440087BFF18
:100645007A0979BC801BAC10EC120248AB0BAA0AE4
:10065500A909A8081201B4600250177BFF7A09792D
:10066500BF7D0B7F01120A697FF47E01120A4102E8
:1006750004AAAC11EC120248AB0BAA0AA909A808F6
:100685001201B440030204AAAC10EC120248AB0BF1
:10069500AA0AA909A8081201B4600250030204AA13
:1006A5007BFF7A0979C27D0B7F01120A690204AAD0
:03000B00020817D1
:10081700C0E0C0F0C083C082C0D075D000C000C0A7
:0D08270001C002C003C004C005C006C00728
:10083400758A18758CFC0527E52770020526C39474
:1008440014E5269400400975260075270012090C4A
:10085400D007D006D005D004D003D002D001D000F8
:0B086400D0D0D082D083D0F0D0E032A2
:030C3C003078000D
:0B07410024FFFDE434FFFC7F0A7E0073
:08074C008E1B8F1C8D828C8333
:10075400E4752101F520F51FF51ED3E5829400E52B
:10076400839400402B85821DE51DD394004030AB5B
:1007740021AA20A91FA81EAE1BAF1CEE3395E0FDD5
:10078400FC12032A8F218E208D1F8C1E151D80D8EC
:10079400E58245837009752101F520F51FF51EAF2B
:0707A40021AE20AD1FAC1EC9
:0107AB00222B
:100B7A00C2A5C2A68F80D2A77F017E00120B92C2A5
:080B8A00A77F017E00020B921F
:100A19001203B5E47B0AFAF9F81203B5EB2430FFA7
:100A2900C2A5D2A68F80D2A77F017E00120B92C2E7
:080A3900A77F017E00020B9271
:100BEA007F38120B7A7F0C120B7A7F06120B7A7FF0
:040BFA0001020B7A6F
:100AB1008F1B8D1CE51BB40105E51C148009E51B8A
:0E0AC100B4020AE51C243F4480FF120B7A2287
:0A0C23008B13120AB1AF13020A2965
:060A69008B138A148915AD
:100A6F00120AB1E4F516AB13AA14A91585168275EF
:0F0A7F0083001202FDFF6007120A29051680E7A7
:010A8E002245
:04096C008A158B1647
:10097000120AB1851718E518D39400401BE5181228
:100980000741A804A905AA06AB07AE15AF16E4FCFB
:08099000FD120A19151880DEA2
:01099800223C
:0407AC008A158B1609
:1007B000120AB1D3E5169400E515648094804007D1
:1007C0007F2B120A298021C3E51564809480501282
:1007D0007F2D120A29C3E49516F519E49515F5182D
:1007E000800CE516451570068515188516198517B0
:1007F0001AE51AD39400401EE51A120741A804A96D
:1008000005AA06AB07AE18AF19EE3395E0FDFC1252
:060810000A19151A80DB35
:0108160022BF
:04086F008A228B232B
:100873007BFF7A0C793C120A69752501E525F46042
:1008830039E52525E025E0FFAE22E523A80708800A
:1008930005CEC313CE13D8F9540FF524C3940A50CD
:1008A30006E5242430800BE524C3940A4008E5249C
:0A08B3002437FF120A29152580C220
:0108BD002218
:100B9200EF1FAC0670011E4C600B007D027CC7DCAF
:050BA200FEDDFC80EB0C
:010BA700222B
:100ACF00C2AFD2B7C2B77FE3DFFED2B77F1DDFFE63
:0D0ADF00A2B7E433FE7F9EDFFED2AFAF066C
:010AEC0022E7
:100BA800C2AFC2B77E03DEFEEF24FF92B77E18DE27
:050BB800FED2B7D2AF30
:010BBD002215
:100B4500C2AFC2B77F01DFFED2B77F01DFFEA2B71A
:0B0B5500E433FE7F16DFFED2AFAF06D8
:010B60002272
:020B6100AD07DE
:100B6300E4FCA8047401088002C333D8FC5DFF12BF
:060B73000BA80CBC08EC0D
:010B79002259
:100B0B00E4FDFC120B45EF600DA804740108800294
:0C0B1B00C333D8FC42050CBC08E9AF0550
:010B270022AB
:100BBE00120ACFEF60037F01227FCC120B617F44BC
:050BCE00120B617F0025
:010BD30022FF
:1009C500120ACF7FCC120B617FBE120B61120B0B8B
:1009D5008F13120B0BEFFEE513FFFDAC06EC1202B5
:0B09E50043E4FBFA798078410201171F
:1008BE00EF24F6600C14600E2402700F752A1F8050
:1008CE000D752A3F8008752A5F8003752A7F120AEC
:1008DE00CF7FCC120B617F4E120B617F23120B6107
:1008EE007F14120B61AF2A120B61120ACF7FCC124A
:0E08FE000B617F48120B617F327E00020B926D
:060C1C000129000128007F
:100BD400E4FF20B1010F20B0027F0220B2027F03A4
:050BE40020B3027F04B4
:010BE90022E9
:10090C00AE28120BD48F28BE0107E5287003752979
:10091C0001BE0207E5287003752902BE0307E5280E
:0F092C007003752903BE0407E5287003752904BD
:01093B002299
:050C3600E4AF29F529DF
:010C3B002296
:100B28005389F0438901D28CC28D758A18758CFC63
:0D0B3800D2A9D2AF53B7FD43B702D2B92204
:100A8F008F138D14120C2D7FA01209F0120BFEAFD5
:100A9F00131209F0120BFEAF141209F0120BFE0223
:020AAF00000342
:02093C008F1317
:10093E00120C2D7FA01209F0120BFEAF131209F04C
:10094E00120BFE120C2D7FA11209F0120BFE120AD1
:0D095E00ED8F147F01120C0C120003AF147A
:01096B002269
:090C2D00D2A1D2A0C2A0C2A122F2
:07000300C2A0D2A1D2A0228D
:0209F000AD0751
:1009F200E4FB7E007480A803088006CEA2E713CE33
:100A020013D8F8FFEDF582EF558224FF92A0D2A110
:060A1200C2A10BBB08DCD1
:010A180022BB
:100AED00E4FFD2A0FED2A130A00DA806748008802C
:0D0AFD0002C313D8FC4207C2A10EBE08E8D8
:010B0A0022C8
:0C0C0C00C2A1EF24FF92A0D2A1C2A1223D
:0D0BFE00C2A1D2A0D2A1A2A0E433FFC2A1E7
:010C0B0022C6
:040A41008E138F146D
:100A4500E4F515F516C3E5169514E515951350133C
:100A5500B2A57F017E00120B920516E51670E6051C
:030A65001580E217
:010A6800226B
:10000E00EC4D6011E8497017ED33EC3304600DE4EC
:10001E00FCFFFEFD22E933E8330470F80202E81219
:10002E0002B358046009E4CC24815006285009021A
:10003E0002F22840030202EFC0E0EB4A7044B9809E
:10004E0006D0E0FB0202DEEF4E701CBD8008EBFF17
:10005E00EAFEE9FD80EBE98DF0A4FEE5F00200F783
:10006E00E9CDF9EAFEEBFFEF89F0A4FCE5F0CE89CD
:10007E00F0A42EFFE435F0CD89F0A42DFEE435F08A
:10008E008067EF4E7005BD80D780C3EF8BF0A4ACB8
:10009E00F0EE8BF0A42CFCE435F0F8EF8AF0A42CF3
:1000AE00E5F038FCE433CB8DF0A42CFCE5F03BF806
:1000BE00EE8AF0A42CFCE5F038F8E433CF89F0A4F6
:1000CE002CFCE5F038CF3400CE89F0A42FFFE5F0FC
:1000DE003EFEE433C98DF0A42EFEE5F039CD8AF054
:1000EE00A42FFFE5F03EFEE43DFD33D0E0FB5007CC
:1000FE000BBB000F0202F2EC2CFCEF33FFEE33FED3
:06010E00ED33FD0202CA00
:100114000202F2EC5D046005E8590470030202E88F
:100124001202B3580460F6EC4860F2EC7004FDFE71
:10013400FF22C860DB2481C85009C39860025006BE
:100144000202EF9850CAF582E9294B4A7005AB8246
:100154000202DE75F0007C1A7880C3EF9BEE9AED04
:1001640099400DC3EF9BFFEE9AFEED99FDE842F036
:10017400DC23ACF0D0E0FFD0E0FED0E0FDAB822089
:10018400E7101BEB60BAEC2CFCEF33FFEE33FEED13
:1001940033FD0202CAE803F830E705C0F075F00049
:1001A400EF2FFFEE33FEED33FD40B830E7C280AAF7
:1001B40074F8CC6480CCC86480C8F58204604FC3F2
:1001C400EB9FF5F0EA9E42F0E99D42F0E89C45F091
:1001D400603C501DE5825FFFE582D313CB5BCBF41B
:1001E4002B5582FB50280ABA002409B90020088044
:1001F4001DE5825BFBE582D313CF5FCFF4C3132FDE
:100204005582FF50090EBE00050DBD00010CC3EB65
:100214009FF5F0EA9E42F0E99D42F0E89C45F060CB
:0902240007CC4820E701B3EC22ED
:10022D00ED33EC33600A047003BD8004ECB2E7FCDF
:01023D00229E
:10023E0075F020800E75F010800575F0087D007E3B
:10024E00007F003392D530D503120447EC334010B3
:10025E00EF33FFEE33FEED33FDEC33FCD5F0ED2244
:0E026E00E5F0247EA2D513CC92E7CDCEFF2280
:10027C00EDD2E7CD33EC3392D524814006E4FFFE7A
:10028C00FDFC22FCE4CFCECDCC24E0501174FF80D9
:10029C00EDC3CC13CCCD13CDCE13CECF13CF047076
:0702AC00F030D5DE0204472B
:1002B300E9D2E7C933E833F892D5EDD2E7CD33EC91
:0702C30033FC5002B2D5220A
:1002CA00EC30E7100FBF000C0EBE00080DBD000495
:1002DA000BEB6014A2D5EB13FCED92E7FD2274FF41
:1002EA00FCFDFEFF22E480F8A2D574FF13FC7D809A
:0302FA00E480EFAE
:030000000206B540
:0C06B500787FE4F6D8FD75812A0206FC6F
:1002FD00BB010CE58229F582E5833AF583E02250B6
:10030D0006E92582F8E622BBFE06E92582F8E222FF
:0D031D00E58229F582E5833AF583E4932219
:10032A00E88FF0A4CC8BF0A42CFCE98EF0A42CFC72
:10033A008AF0EDA42CFCEA8EF0A4CDA8F08BF0A4F0
:10034A002DCC3825F0FDE98FF0A42CCD35F0FCEB4F
:10035A008EF0A4FEA9F0EB8FF0A4CFC5F02ECD3914
:0F036A00FEE43CFCEAA42DCE35F0FDE43CFC2281
:1003790075F008758200EF2FFFEE33FECD33CDCC3B
:1003890033CCC58233C5829BED9AEC99E5829840BE
:100399000CF582EE9BFEED9AFDEC99FC0FD5F0D69B
:1003A900E4CEFBE4CDFAE4CCF9A88222B800C1B9C5
:1003B9000059BA002DEC8BF084CFCECDFCE5F0CB03
:1003C900F97818EF2FFFEE33FEED33FDEC33FCEB3C
:1003D90033FB10D703994004EB99FB0FD8E5E4F9F7
:1003E900FA227818EF2FFFEE33FEED33FDEC33FCE4
:1003F900C933C910D7059BE99A4007EC9BFCE99AD8
:10040900F90FD8E0E4C9FAE4CCFB2275F010EF2F1C
:10041900FFEE33FEED33FDCC33CCC833C810D7071C
:100429009BEC9AE899400AED9BFDEC9AFCE899F857
:0E0439000FD5F0DAE4CDFBE4CCFAE4C8F922EA
:0E044700C3E49FFFE49EFEE49DFDE49CFC22C6
:1006C100020455E493A3F8E493A34003F68001F2F6
:1006D10008DFF48029E493A3F85407240CC8C3333A
:1006E100C4540F4420C8834004F456800146F6DF09
:1006F100E4800B0102040810204080900C18E47E75
:10070100019360BCA3FF543F30E509541FFEE493FD
:10071100A360010ECF54C025E060A840B8E493A3C4
:10072100FAE493A3F8E493A3C8C582C8CAC583CAEF
:10073100F0A3C8C582C8CAC583CADFE9DEE780BEA7
:010C220000D1
:00000001FF
