:10044A0012078712079B7FEE7E0212075B12063C99
:10045A008F0B8E0A8D098C08E4FFFEFDFCAB0BAAFC
:10046A000AA909A8081201A9501E7B2D7D017F0146
:10047A001207B4AF0BAE0AAD09AC081202228F0BF9
:10048A008E0A8D098C0880097B2B7D017F0112075A
:10049A00B4AF0BAE0AAD09AC08120271AB07AA06DB
:1004AA007510037D027F0112060F7B2E7D057F01E9
:1004BA001207B47F007E407D1C7C46AB0BAA0AA9BA
:1004CA0009A808120003120271E47B107A27F9F8CE
:1004DA001203AA7510047D067F0112060F02044D4D
:0307BE0030780090
:0B04EA0024FFFDE434FFFC7F0A7E00CD
:0804F5008E128F138D828C839F
:1004FD00E4751801F517F516F515D3E5829400E5A9
:10050D00839400402B858214E514D394004030ABC6
:10051D0018AA17A916A815AE12AF13EE3395E0FD64
:10052D00FC12031F8F188E178D168C15151480D87D
:10053D00E58245837009751801F517F516F515AFA8
:07054D0018AE17AD16AC1546
:010554002284
:10074300C2A5C2A68F80D2A77F017E0012075BC21B
:08075300A77F017E0002075B95
:100667001203AAE47B0AFAF9F81203AAEB2430FF73
:10067700C2A5D2A68F80D2A77F017E0012075BC2D8
:08068700A77F017E0002075B62
:100787007F381207437F0C1207437F061207437F08
:040797000102074311
:1006B5008F128D13E512B40105E513148009E512B7
:0E06C500B4020AE513243F4480FF12074322CB
:0A07B4008B0C1206B5AF0C0206779D
:06068F008B218A22892361
:100695001206B5E4F524AB21AA22A9238524827587
:0F06A50083001202F2FF6007120677052480E738
:0106B4002223
:04060F008A0E8B0FB5
:100613001206B5851011E511D39400401BE51112A4
:1006230004EAA804A905AA06AB07AE0EAF0FE4FCC3
:08063300FD120667151180DEBF
:01063B00229C
:040555008A1B8B1C56
:100559001206B5D3E51C9400E51B6480948040071E
:100569007F2B1206778021C3E51B6480948050128B
:100579007F2D120677C3E4951CF51FE4951BF51E24
:10058900800CE51C451B7006851B1E851C1F851DDF
:1005990020E520D39400401EE5201204EAA804A90E
:1005A90005AA06AB07AE1EAF1FEE3395E0FDFC12A0
:0605B9000667152080DB3F
:0105BF002219
:0405C0008A258B26D7
:1005C4007BFF7A0779BE12068F752801E528F4604F
:1005D40039E52825E025E0FFAE25E526A8070880B3
:1005E40005CEC313CE13D8F9540FF527C3940A507C
:1005F40006E5272430800BE527C3940A4008E52745
:0A0604002437FF120677152880C284
:01060E0022C9
:10075B00EF1FAC0670011E4C600B007D027CC7DCEA
:05076B00FEDDFC80EB47
:010770002266
:1006D300C2AFD2B7C2B77FE3DFFED2B77F1DDFFE63
:0D06E300A2B7E433FE7F9EDFFED2AFAF066C
:0106F00022E7
:10077100C2AFC2B77E03DEFEEF24FF92B77E18DE62
:05078100FED2B7D2AF6B
:010786002250
:10070E00C2AFC2B77F01DFFED2B77F01DFFEA2B755
:0B071E00E433FE7F16DFFED2AFAF0613
:0107290022AD
:02072A00AD0719
:10072C00E4FCA8047401088002C333D8FC5DFF12FA
:06073C0007710CBC08EC83
:010742002294
:1006F100E4FDFC12070EEF600DA8047401088002EE
:0C070100C333D8FC42050CBC08E9AF056E
:01070D0022C9
:0D079B001206D37FCC12072A7F4402072AE2
:10063C001206D37FCC12072A7FBE12072A1206F1AC
:10064C008F0C1206F1EFFEE50CFFFDAC06EC12026E
:0B065C0038E4FBFA7980784102010CC1
:10000300EC4D6011E8497017ED33EC3304600DE4F7
:10001300FCFFFEFD22E933E8330470F80202DD122F
:1000230002A858046009E4CC248150062850090230
:1000330002E72840030202E4C0E0EB4A7044B980BF
:1000430006D0E0FB0202D3EF4E701CBD8008EBFF2D
:10005300EAFEE9FD80EBE98DF0A4FEE5F00200EC99
:10006300E9CDF9EAFEEBFFEF89F0A4FCE5F0CE89D8
:10007300F0A42EFFE435F0CD89F0A42DFEE435F095
:100083008067EF4E7005BD80D780C3EF8BF0A4ACC3
:10009300F0EE8BF0A42CFCE435F0F8EF8AF0A42CFE
:1000A300E5F038FCE433CB8DF0A42CFCE5F03BF811
:1000B300EE8AF0A42CFCE5F038F8E433CF89F0A401
:1000C3002CFCE5F038CF3400CE89F0A42FFFE5F007
:1000D3003EFEE433C98DF0A42EFEE5F039CD8AF05F
:1000E300A42FFFE5F03EFEE43DFD33D0E0FB5007D7
:1000F3000BBB000F0202E7EC2CFCEF33FFEE33FEE9
:06010300ED33FD0202BF16
:100109000202E7EC5D046005E8590470030202DDB0
:100119001202A8580460F6EC4860F2EC7004FDFE87
:10012900FF22C860DB2481C85009C39860025006C9
:100139000202E49850CAF582E9294B4A7005AB825C
:100149000202D375F0007C1A7880C3EF9BEE9AED1A
:1001590099400DC3EF9BFFEE9AFEED99FDE842F041
:10016900DC23ACF0D0E0FFD0E0FED0E0FDAB822094
:10017900E7101BEB60BAEC2CFCEF33FFEE33FEED1E
:1001890033FD0202BFE803F830E705C0F075F0005F
:10019900EF2FFFEE33FEED33FD40B830E7C280AA02
:1001A90074F8CC6480CCC86480C8F58204604FC3FD
:1001B900EB9FF5F0EA9E42F0E99D42F0E89C45F09C
:1001C900603C501DE5825FFFE582D313CB5BCBF426
:1001D9002B5582FB50280ABA002409B9002008804F
:1001E9001DE5825BFBE582D313CF5FCFF4C3132FE9
:1001F9005582FF50090EBE00050DBD00010CC3EB71
:100209009FF5F0EA9E42F0E99D42F0E89C45F060D6
:0902190007CC4820E701B3EC22F8
:10022200ED33EC33600A047003BD8004ECB2E7FCEA
:0102320022A9
:1002330075F020800E75F010800575F0087D007E46
:10024300007F003392D530D50312043CEC334010C9
:10025300EF33FFEE33FEED33FDEC33FCD5F0ED224F
:0E026300E5F0247EA2D513CC92E7CDCEFF228B
:10027100EDD2E7CD33EC3392D524814006E4FFFE85
:10028100FDFC22FCE4CFCECDCC24E0501174FF80E4
:10029100EDC3CC13CCCD13CDCE13CECF13CF047081
:0702A100F030D5DE02043C41
:1002A800E9D2E7C933E833F892D5EDD2E7CD33EC9C
:0702B80033FC5002B2D52215
:1002BF00EC30E7100FBF000C0EBE00080DBD0004A0
:1002CF000BEB6014A2D5EB13FCED92E7FD2274FF4C
:1002DF00FCFDFEFF22E480F8A2D574FF13FC7D80A5
:0302EF00E480EFB9
:030000000207A84C
:0C07A800787FE4F6D8FD75812802044A31
:1002F200BB010CE58229F582E5833AF583E02250C1
:1003020006E92582F8E622BBFE06E92582F8E2220A
:0D031200E58229F582E5833AF583E4932224
:10031F00E88FF0A4CC8BF0A42CFCE98EF0A42CFC7D
:10032F008AF0EDA42CFCEA8EF0A4CDA8F08BF0A4FB
:10033F002DCC3825F0FDE98FF0A42CCD35F0FCEB5A
:10034F008EF0A4FEA9F0EB8FF0A4CFC5F02ECD391F
:0F035F00FEE43CFCEAA42DCE35F0FDE43CFC228C
:10036E0075F008758200EF2FFFEE33FECD33CDCC46
:10037E0033CCC58233C5829BED9AEC99E5829840C9
:10038E000CF582EE9BFEED9AFDEC99FC0FD5F0D6A6
:10039E00E4CEFBE4CDFAE4CCF9A88222B800C1B9D0
:1003AE000059BA002DEC8BF084CFCECDFCE5F0CB0E
:1003BE00F97818EF2FFFEE33FEED33FDEC33FCEB47
:1003CE0033FB10D703994004EB99FB0FD8E5E4F902
:1003DE00FA227818EF2FFFEE33FEED33FDEC33FCEF
:1003EE00C933C910D7059BE99A4007EC9BFCE99AE3
:1003FE00F90FD8E0E4C9FAE4CCFB2275F010EF2F28
:10040E00FFEE33FEED33FDCC33CCC833C810D70727
:10041E009BEC9AE899400AED9BFDEC9AFCE899F862
:0E042E000FD5F0DAE4CDFBE4CCFAE4C8F922F5
:0E043C00C3E49FFFE49EFEE49DFDE49CFC22D1
:00000001FF
