:1009300045727220202020202020202020202020EE
:1009400000202020202020202020202020202020C7
:100950002000543A00544C3A0054483A00482100D0
:060960004C2100202000E4
:040C46000226000082
:10045500120C18120B56E4FF1209968F117F011228
:1004650009968F10D3E511648094FD5016C3E510ED
:1004750064809449400DD3E5106480F8E5116480EB
:10048500985022751123751012AD11E4FF120ABDA3
:100495007F057E00120BC0AD107F01120ABD7F05DE
:1004A5007E00120BC0120BECBF011F7BFF7A09798E
:1004B500307D017F01120A977BFF7A0979417D0121
:1004C5007F02120A977F96020693120C648F127BA5
:1004D500FF7A0979527D017F01120A977BFF7A091C
:1004E50079557D087F02120A977BFF7A0979597D34
:1004F500017F02120A97E5127003020589B4011003
:100505000511C3E511648094FD405D75117D80582A
:10051500E512B402131511D3E5106480F8E51164F2
:100525008098504405118040E512B403190510C3A5
:10053500E5116480F8E51064809840041510802862
:10054500E51070248019E512B4041D1510D3E510CB
:100555006480944950057510C9800DE51070097BBC
:10056500207D0D7F02120C51AD11E4FF120ABD7FF3
:10057500057E00120BC0AD107F01120ABD7F057EFE
:1005850000120BC0E511FB3395E0FA7517037D04E6
:100595007F021207D0E510FB3395E0FA7517027D4F
:1005A5000B7F021207D0120B73EF60FA1209F38F5B
:1005B5000B8E0A8D098C08E4FFFEFDFCAB0BAA0A25
:1005C500A909A8081201B4501E7B2D7D037F0112D5
:1005D5000C51AF0BAE0AAD09AC0812022D8F0F8E70
:1005E5000E8D0D8C0C80157B2B7D037F01120C511C
:1005F500850B0F850A0E85090D85080CAF0FAE0E0C
:10060500AD0DAC0C12027CAB07AA067517027D0472
:100615007F011209C67B2E7D067F01120C51E4FF76
:10062500FE7DC87C42AB0FAA0EA90DA80C12000EC8
:1006350012027CE47B64FAF9F81203B57517027DA2
:10064500077F011209C6AC11EC120248AB0BAA0ACE
:10065500A909A8081201B440117BFF7A09795D7DCB
:100665000B7F01120A977FC88024AC10EC12024858
:10067500AB0BAA0AA909A8081201B4600250177B9E
:10068500FF7A0979607D0B7F01120A977FC87E008A
:10069500120A6F0204AAAC11EC120248AB0BAA0AAB
:1006A500A909A8081201B440030204AAAC10EC126F
:1006B5000248AB0BAA0AA909A8081201B4600250A6
:1006C500030204AA7BFF7A0979637D0B7F01120A75
:0406D500970204AADA
:03000B0002083BAD
:10083B00C0E0C0F0C083C082C0D075D000C000C083
:0D084B0001C002C003C004C005C006C00704
:10085800758A18758CFC0527E52770020526C39450
:1008680014E52694004009752600752700120966CC
:10087800D007D006D005D004D003D002D001D000D4
:0B088800D0D0D082D083D0F0D0E0327E
:030C6A00307800DF
:0B07650024FFFDE434FFFC7F0A7E004F
:080770008E1B8F1C8D828C830F
:10077800E4752101F520F51FF51ED3E5829400E507
:10078800839400402B85821DE51DD394004030AB37
:1007980021AA20A91FA81EAE1BAF1CEE3395E0FDB1
:1007A800FC12032A8F218E208D1F8C1E151D80D8C8
:1007B800E58245837009752101F520F51FF51EAF07
:0707C80021AE20AD1FAC1EA5
:0107CF002207
:100BA800C2A5C2A68F80D2A77F017E00120BC0C249
:080BB800A77F017E00020BC0C3
:100A47001203B5E47B0AFAF9F81203B5EB2430FF79
:100A5700C2A5D2A68F80D2A77F017E00120BC0C28B
:080A6700A77F017E00020BC015
:100C18007F38120BA87F0C120BA87F06120BA87F37
:040C280001020BA812
:100ADF008F1B8D1CE51BB40105E51C148009E51B5C
:0E0AEF00B4020AE51C243F4480FF120BA8222B
:0A0C51008B13120ADFAF13020A57DB
:060A97008B138A1489157F
:100A9D00120ADFE4F516AB13AA14A9158516827593
:0F0AAD0083001202FDFF6007120A57051680E74B
:010ABC002217
:0409C6008A158B16ED
:1009CA00120ADF851718E518D39400401BE51812A0
:1009DA000765A804A905AA06AB07AE15AF16E4FC7D
:0809EA00FD120A47151880DE1A
:0109F20022E2
:0407D0008A158B16E5
:1007D400120ADFD3E5169400E5156480948040077F
:1007E4007F2B120A578021C3E51564809480501230
:1007F4007F2D120A57C3E49516F519E49515F518DB
:10080400800CE5164515700685151885161985178B
:100814001AE51AD39400401EE51A120765A804A924
:1008240005AA06AB07AE18AF19EE3395E0FDFC122E
:060834000A47151A80DBE3
:01083A00229B
:040893008A228B2307
:100897007BFF7A0C796A120A97752501E525F460C2
:1008A70039E52525E025E0FFAE22E523A8070880E6
:1008B70005CEC313CE13D8F9540FF524C3940A50A9
:1008C70006E5242430800BE524C3940A4008E52478
:0A08D7002437FF120A57152580C2CE
:0108E10022F4
:100BC000EF1FAC0670011E4C600B007D027CC7DC81
:050BD000FEDDFC80EBDE
:010BD50022FD
:100AFD00C2AFD2B7C2B77FE3DFFED2B77F1DDFFE35
:0D0B0D00A2B7E433FE7F9EDFFED2AFAF063D
:010B1A0022B8
:100BD600C2AFC2B77E03DEFEEF24FF92B77E18DEF9
:050BE600FED2B7D2AF02
:010BEB0022E7
:100B7300C2AFC2B77F01DFFED2B77F01DFFEA2B7EC
:0B0B8300E433FE7F16DFFED2AFAF06AA
:010B8E002244
:020B8F00AD07B0
:100B9100E4FCA8047401088002C333D8FC5DFF1291
:060BA1000BD60CBC08ECB1
:010BA700222B
:100B3900E4FDFC120B73EF600DA804740108800238
:0C0B4900C333D8FC42050CBC08E9AF0522
:010B5500227D
:100BEC00120AFDEF60037F01227FCC120B8F7F4432
:050BFC00120B8F7F00C9
:010C010022D0
:1009F300120AFD7FCC120B8F7FBE120B8F120B39A5
:100A03008F13120B39EFFEE513FFFDAC06EC120258
:0B0A130043E4FBFA79807841020117F0
:1008E200EF24F6600C14600E2402700F752A1F802C
:1008F2000D752A3F8008752A5F8003752A7F120AC8
:10090200FD7FCC120B8F7F4E120B8F7F23120B8F2A
:100912007F14120B8FAF2A120B8F120AFD7FCC129B
:0E0922000B8F7F48120B8F7F327E00020BC0BE
:060C4A0001290001280051
:100C0200E4FF20B1010F20B0027F0220B2027F0375
:050C120020B3027F0485
:010C170022BA
:10096600AE28120C028F28BE0107E52870037529F0
:1009760001BE0207E5287003752902BE0307E528B4
:0F0986007003752903BE0407E528700375290463
:01099500223F
:050C6400E4AF29F529B1
:010C69002268
:100B56005389F0438901D28CC28D758A18758CFC35
:0D0B6600D2A9D2AF53B7FD43B702D2B922D6
:100ABD008F138D14120C5B7FA0120A1E120C2CAF1B
:100ACD0013120A1E120C2CAF14120A1E120C2C0239
:020ADD00000314
:020996008F13BD
:10099800120C5B7FA0120A1E120C2CAF13120A1E37
:1009A800120C2C120C5B7FA1120A1E120C2C120BBB
:0D09B8001B8F147F01120C3A120003AF14C4
:0109C500220F
:090C5B00D2A1D2A0C2A0C2A122C4
:07000300C2A0D2A1D2A0228D
:020A1E00AD0722
:100A2000E4FB7E007480A803088006CEA2E713CE04
:100A300013D8F8FFEDF582EF558224FF92A0D2A1E2
:060A4000C2A10BBB08DCA3
:010A4600228D
:100B1B00E4FFD2A0FED2A130A00DA80674800880FD
:0D0B2B0002C313D8FC4207C2A10EBE08E8A9
:010B3800229A
:0C0C3A00C2A1EF24FF92A0D2A1C2A1220F
:0D0C2C00C2A1D2A0D2A1A2A0E433FFC2A1B8
:010C39002298
:040A6F008E138F143F
:100A7300E4F515F516C3E5169514E515951350130E
:100A8300B2A57F017E00120BC00516E51670E605C0
:030A93001580E2E9
:010A9600223D
:10000E00EC4D6011E8497017ED33EC3304600DE4EC
:10001E00FCFFFEFD22E933E8330470F80202E81219
:10002E0002B358046009E4CC24815006285009021A
:10003E0002F22840030202EFC0E0EB4A7044B9809E
:10004E0006D0E0FB0202DEEF4E701CBD8008EBFF17
:10005E00EAFEE9FD80EBE98DF0A4FEE5F00200F783
:10006E00E9CDF9EAFEEBFFEF89F0A4FCE5F0CE89CD
:10007E00F0A42EFFE435F0CD89F0A42DFEE435F08A
:10008E008067EF4E7005BD80D780C3EF8BF0A4ACB8
:10009E00F0EE8BF0A42CFCE435F0F8EF8AF0A42CF3
:1000AE00E5F038FCE433CB8DF0A42CFCE5F03BF806
:1000BE00EE8AF0A42CFCE5F038F8E433CF89F0A4F6
:1000CE002CFCE5F038CF3400CE89F0A42FFFE5F0FC
:1000DE003EFEE433C98DF0A42EFEE5F039CD8AF054
:1000EE00A42FFFE5F03EFEE43DFD33D0E0FB5007CC
:1000FE000BBB000F0202F2EC2CFCEF33FFEE33FED3
:06010E00ED33FD0202CA00
:100114000202F2EC5D046005E8590470030202E88F
:100124001202B3580460F6EC4860F2EC7004FDFE71
:10013400FF22C860DB2481C85009C39860025006BE
:100144000202EF9850CAF582E9294B4A7005AB8246
:100154000202DE75F0007C1A7880C3EF9BEE9AED04
:1001640099400DC3EF9BFFEE9AFEED99FDE842F036
:10017400DC23ACF0D0E0FFD0E0FED0E0FDAB822089
:10018400E7101BEB60BAEC2CFCEF33FFEE33FEED13
:1001940033FD0202CAE803F830E705C0F075F00049
:1001A400EF2FFFEE33FEED33FD40B830E7C280AAF7
:1001B40074F8CC6480CCC86480C8F58204604FC3F2
:1001C400EB9FF5F0EA9E42F0E99D42F0E89C45F091
:1001D400603C501DE5825FFFE582D313CB5BCBF41B
:1001E4002B5582FB50280ABA002409B90020088044
:1001F4001DE5825BFBE582D313CF5FCFF4C3132FDE
:100204005582FF50090EBE00050DBD00010CC3EB65
:100214009FF5F0EA9E42F0E99D42F0E89C45F060CB
:0902240007CC4820E701B3EC22ED
:10022D00ED33EC33600A047003BD8004ECB2E7FCDF
:01023D00229E
:10023E0075F020800E75F010800575F0087D007E3B
:10024E00007F003392D530D503120447EC334010B3
:10025E00EF33FFEE33FEED33FDEC33FCD5F0ED2244
:0E026E00E5F0247EA2D513CC92E7CDCEFF2280
:10027C00EDD2E7CD33EC3392D524814006E4FFFE7A
:10028C00FDFC22FCE4CFCECDCC24E0501174FF80D9
:10029C00EDC3CC13CCCD13CDCE13CECF13CF047076
:0702AC00F030D5DE0204472B
:1002B300E9D2E7C933E833F892D5EDD2E7CD33EC91
:0702C30033FC5002B2D5220A
:1002CA00EC30E7100FBF000C0EBE00080DBD000495
:1002DA000BEB6014A2D5EB13FCED92E7FD2274FF41
:1002EA00FCFDFEFF22E480F8A2D574FF13FC7D809A
:0302FA00E480EFAE
:030000000206D91C
:0C06D900787FE4F6D8FD75812A02072026
:1002FD00BB010CE58229F582E5833AF583E02250B6
:10030D0006E92582F8E622BBFE06E92582F8E222FF
:0D031D00E58229F582E5833AF583E4932219
:10032A00E88FF0A4CC8BF0A42CFCE98EF0A42CFC72
:10033A008AF0EDA42CFCEA8EF0A4CDA8F08BF0A4F0
:10034A002DCC3825F0FDE98FF0A42CCD35F0FCEB4F
:10035A008EF0A4FEA9F0EB8FF0A4CFC5F02ECD3914
:0F036A00FEE43CFCEAA42DCE35F0FDE43CFC2281
:1003790075F008758200EF2FFFEE33FECD33CDCC3B
:1003890033CCC58233C5829BED9AEC99E5829840BE
:100399000CF582EE9BFEED9AFDEC99FC0FD5F0D69B
:1003A900E4CEFBE4CDFAE4CCF9A88222B800C1B9C5
:1003B9000059BA002DEC8BF084CFCECDFCE5F0CB03
:1003C900F97818EF2FFFEE33FEED33FDEC33FCEB3C
:1003D90033FB10D703994004EB99FB0FD8E5E4F9F7
:1003E900FA227818EF2FFFEE33FEED33FDEC33FCE4
:1003F900C933C910D7059BE99A4007EC9BFCE99AD8
:10040900F90FD8E0E4C9FAE4CCFB2275F010EF2F1C
:10041900FFEE33FEED33FDCC33CCC833C810D7071C
:100429009BEC9AE899400AED9BFDEC9AFCE899F857
:0E0439000FD5F0DAE4CDFBE4CCFAE4C8F922EA
:0E044700C3E49FFFE49EFEE49DFDE49CFC22C6
:1006E500020455E493A3F8E493A34003F68001F2D2
:1006F50008DFF48029E493A3F85407240CC8C33316
:10070500C4540F4420C8834004F456800146F6DFE4
:10071500E4800B0102040810204080900C46E47E22
:10072500019360BCA3FF543F30E509541FFEE493D9
:10073500A360010ECF54C025E060A840B8E493A3A0
:10074500FAE493A3F8E493A3C8C582C8CAC583CACB
:10075500F0A3C8C582C8CAC583CADFE9DEE780BE83
:010C500000A3
:00000001FF
