:070824004572722020200044
:10044A001207FA1207E4BF010F7BFF7A0879247DAD
:10045A00017F011206EC80EB12076BEF60FA1206BD
:10046A00998F0B8E0A8D098C08E4FFFEFDFCAB0BFD
:10047A00AA0AA909A8081201A9501E7B2D7D017F8D
:10048A000112081AAF0BAE0AAD09AC081202228F8C
:10049A000B8E0A8D098C0880097B2B7D017F011246
:1004AA00081AAF0BAE0AAD09AC08120271AB07AA63
:1004BA00067510027D027F0112066C7B2E7D047F79
:1004CA000112081AE4FFFE7DC87C42AB0BAA0AA9F6
:1004DA0009A808120003120271E47B64FAF9F812FF
:0F04EA0003AA7510027D057F0112066C02044DF6
:03082B0030780022
:0B04F90024FFFDE434FFFC7F0A7E00BE
:080504008E128F138D828C838F
:10050C00E4751801F517F516F515D3E5829400E599
:10051C00839400402B858214E514D394004030ABB7
:10052C0018AA17A916A815AE12AF13EE3395E0FD55
:10053C00FC12031F8F188E178D168C15151480D86E
:10054C00E58245837009751801F517F516F515AF99
:07055C0018AE17AD16AC1537
:010563002275
:1007A000C2A5C2A68F80D2A77F017E001207B8C261
:0807B000A77F017E000207B8DB
:1006C4001203AAE47B0AFAF9F81203AAEB2430FF16
:1006D400C2A5D2A68F80D2A77F017E001207B8C21E
:0806E400A77F017E000207B8A8
:1007FA007F381207A07F0C1207A07F061207A07F7E
:04080A00010207A040
:100712008F128D13E512B40105E513148009E51259
:0E072200B4020AE513243F4480FF1207A02210
:0A081A008B0C120712AF0C0206D47B
:0606EC008B0C8A0D890E43
:1006F200120712E4F50FAB0CAA0DA90E850F827535
:0F07020083001202F2FF60071206D4050F80E792
:0107110022C5
:04066C008A0E8B0F58
:10067000120712851011E511D39400401BE51112E9
:1006800004F9A804A905AA06AB07AE0EAF0FE4FC57
:08069000FD1206C4151180DE05
:01069800223F
:040564008A1B8B1C47
:10056800120712D3E51C9400E51B648094804007B1
:100578007F2B1206D48021C3E51B6480948050121F
:100588007F2D1206D4C3E4951CF51FE4951BF51EB8
:10059800800CE51C451B7006851B1E851C1F851DD0
:1005A80020E520D39400401EE5201204F9A804A9F0
:1005B80005AA06AB07AE1EAF1FEE3395E0FDFC1291
:0605C80006C4152080DBD3
:0105CE00220A
:0405CF008A218B22D0
:1005D3007BFF7A08792B1206EC752401E524F4607D
:1005E30039E52425E025E0FFAE21E522A8070880B0
:1005F30005CEC313CE13D8F9540FF523C3940A5071
:1006030006E5232430800BE523C3940A4008E52341
:0A0613002437FF1206D4152480C21C
:01061D0022BA
:1007B800EF1FAC0670011E4C600B007D027CC7DC8D
:0507C800FEDDFC80EBEA
:0107CD002209
:10073000C2AFD2B7C2B77FE3DFFED2B77F1DDFFE05
:0D074000A2B7E433FE7F9EDFFED2AFAF060E
:01074D002289
:1007CE00C2AFC2B77E03DEFEEF24FF92B77E18DE05
:0507DE00FED2B7D2AF0E
:0107E30022F3
:10076B00C2AFC2B77F01DFFED2B77F01DFFEA2B7F8
:0B077B00E433FE7F16DFFED2AFAF06B6
:010786002250
:02078700AD07BC
:10078900E4FCA8047401088002C333D8FC5DFF129D
:0607990007CE0CBC08ECC9
:01079F002237
:10074E00E4FDFC12076BEF600DA804740108800233
:0C075E00C333D8FC42050CBC08E9AF0511
:01076A00226C
:1007E400120730EF60037F01227FCC1207877F441A
:0507F4001207877F00E1
:0107F90022DD
:100699001207307FCC1207877FBE12078712074ED9
:1006A9008F0C12074EEFFEE50CFFFDAC06EC1202B3
:0B06B90038E4FBFA7980784102010C64
:10061E00EF24F6600C14600E2402700F75251F80F7
:10062E000D75253F800875255F800375257F1207A0
:10063E00307FCC1207877F4E1207877F23120787E2
:10064E007F14120787AF251207871207307FCC124F
:0E065E0007877F481207877F327E000207B8A9
:10000300EC4D6011E8497017ED33EC3304600DE4F7
:10001300FCFFFEFD22E933E8330470F80202DD122F
:1000230002A858046009E4CC248150062850090230
:1000330002E72840030202E4C0E0EB4A7044B980BF
:1000430006D0E0FB0202D3EF4E701CBD8008EBFF2D
:10005300EAFEE9FD80EBE98DF0A4FEE5F00200EC99
:10006300E9CDF9EAFEEBFFEF89F0A4FCE5F0CE89D8
:10007300F0A42EFFE435F0CD89F0A42DFEE435F095
:100083008067EF4E7005BD80D780C3EF8BF0A4ACC3
:10009300F0EE8BF0A42CFCE435F0F8EF8AF0A42CFE
:1000A300E5F038FCE433CB8DF0A42CFCE5F03BF811
:1000B300EE8AF0A42CFCE5F038F8E433CF89F0A401
:1000C3002CFCE5F038CF3400CE89F0A42FFFE5F007
:1000D3003EFEE433C98DF0A42EFEE5F039CD8AF05F
:1000E300A42FFFE5F03EFEE43DFD33D0E0FB5007D7
:1000F3000BBB000F0202E7EC2CFCEF33FFEE33FEE9
:06010300ED33FD0202BF16
:100109000202E7EC5D046005E8590470030202DDB0
:100119001202A8580460F6EC4860F2EC7004FDFE87
:10012900FF22C860DB2481C85009C39860025006C9
:100139000202E49850CAF582E9294B4A7005AB825C
:100149000202D375F0007C1A7880C3EF9BEE9AED1A
:1001590099400DC3EF9BFFEE9AFEED99FDE842F041
:10016900DC23ACF0D0E0FFD0E0FED0E0FDAB822094
:10017900E7101BEB60BAEC2CFCEF33FFEE33FEED1E
:1001890033FD0202BFE803F830E705C0F075F0005F
:10019900EF2FFFEE33FEED33FD40B830E7C280AA02
:1001A90074F8CC6480CCC86480C8F58204604FC3FD
:1001B900EB9FF5F0EA9E42F0E99D42F0E89C45F09C
:1001C900603C501DE5825FFFE582D313CB5BCBF426
:1001D9002B5582FB50280ABA002409B9002008804F
:1001E9001DE5825BFBE582D313CF5FCFF4C3132FE9
:1001F9005582FF50090EBE00050DBD00010CC3EB71
:100209009FF5F0EA9E42F0E99D42F0E89C45F060D6
:0902190007CC4820E701B3EC22F8
:10022200ED33EC33600A047003BD8004ECB2E7FCEA
:0102320022A9
:1002330075F020800E75F010800575F0087D007E46
:10024300007F003392D530D50312043CEC334010C9
:10025300EF33FFEE33FEED33FDEC33FCD5F0ED224F
:0E026300E5F0247EA2D513CC92E7CDCEFF228B
:10027100EDD2E7CD33EC3392D524814006E4FFFE85
:10028100FDFC22FCE4CFCECDCC24E0501174FF80E4
:10029100EDC3CC13CCCD13CDCE13CECF13CF047081
:0702A100F030D5DE02043C41
:1002A800E9D2E7C933E833F892D5EDD2E7CD33EC9C
:0702B80033FC5002B2D52215
:1002BF00EC30E7100FBF000C0EBE00080DBD0004A0
:1002CF000BEB6014A2D5EB13FCED92E7FD2274FF4C
:1002DF00FCFDFEFF22E480F8A2D574FF13FC7D80A5
:0302EF00E480EFB9
:0300000002080EE5
:0C080E00787FE4F6D8FD75812502044ACD
:1002F200BB010CE58229F582E5833AF583E02250C1
:1003020006E92582F8E622BBFE06E92582F8E2220A
:0D031200E58229F582E5833AF583E4932224
:10031F00E88FF0A4CC8BF0A42CFCE98EF0A42CFC7D
:10032F008AF0EDA42CFCEA8EF0A4CDA8F08BF0A4FB
:10033F002DCC3825F0FDE98FF0A42CCD35F0FCEB5A
:10034F008EF0A4FEA9F0EB8FF0A4CFC5F02ECD391F
:0F035F00FEE43CFCEAA42DCE35F0FDE43CFC228C
:10036E0075F008758200EF2FFFEE33FECD33CDCC46
:10037E0033CCC58233C5829BED9AEC99E5829840C9
:10038E000CF582EE9BFEED9AFDEC99FC0FD5F0D6A6
:10039E00E4CEFBE4CDFAE4CCF9A88222B800C1B9D0
:1003AE000059BA002DEC8BF084CFCECDFCE5F0CB0E
:1003BE00F97818EF2FFFEE33FEED33FDEC33FCEB47
:1003CE0033FB10D703994004EB99FB0FD8E5E4F902
:1003DE00FA227818EF2FFFEE33FEED33FDEC33FCEF
:1003EE00C933C910D7059BE99A4007EC9BFCE99AE3
:1003FE00F90FD8E0E4C9FAE4CCFB2275F010EF2F28
:10040E00FFEE33FEED33FDCC33CCC833C810D70727
:10041E009BEC9AE899400AED9BFDEC9AFCE899F862
:0E042E000FD5F0DAE4CDFBE4CCFAE4C8F922F5
:0E043C00C3E49FFFE49EFEE49DFDE49CFC22D1
:00000001FF
