:1006A00020202D20202D20200020203A20203A201C
:0206B000200028
:10031D0012068C1206C67BFF7A0679A07D017F013D
:10032D0012061A7BFF7A0679A97D017F0212061A41
:10033D0012014D120204E51DFB7A00750C027D01C0
:10034D007F011205C5E51EFB7A00750C027D047F49
:10035D00011205C5E51FFB7A00750C027D077F01B3
:10036D001205C5E520FB7A00750C027D017F021296
:10037D0005C5E521FB7A00750C027D047F0212058F
:10038D00C5E522FB7A00750C027D077F021205C5BB
:02039D0080A13D
:0906B200071D130B100C3B370669
:0506C600C2B5C2B6221E
:0304D40025F0FD13
:0204D700A90773
:1004D900D2B5E4FB7E007401A803088005C333CEBE
:1004E90033CED8F9FFE9F582EF558224FF92B4D2D1
:1004F900B6C2B60BBB08DDE4FB7E007401A8030895
:100509008005C333CE33CED8F9FFEDF582EF55829E
:0E05190024FF92B4D2B6C2B60BBB08DDC2B549
:0105270022B1
:02057700AD07CE
:10057900E4F9430501D2B5FB7E007401A8030880A4
:1005890005C333CE33CED8F9FFEDF582EF5582247A
:10059900FF92B4C2B6D2B60BBB08DDE4FBD2B6C239
:1005A900B630B40DA8037401088002C333D8FC42E5
:0B05B900010BBB08E8C2B5C2B4AF01E3
:0105C4002214
:10014D00E4FD7F8E1204D7E51D75F00A84C454F0CA
:10015D00FFE51D75F00A84EF7F8C1204D4E51E7542
:10016D00F00A84C454F0FFE51E75F00A84EF7F8811
:10017D001204D4E51F75F00A84C454F0FFE51F7511
:10018D00F00A84EF25F0FD7F861204D7E52075F087
:10019D000A84C454F0FFE52075F00A84EF25F0FDC4
:1001AD007F841204D7E52175F00A84C454F0FFE56D
:1001BD002175F00A84EF25F0FD7F821204D7E52228
:1001CD0075F00A84C454F0FFE52275F00A84EF251A
:1001DD00F0FD7F801204D7E52375F00A84C454F036
:1001ED00FFE52375F00A84EF25F0FD7F8A1204D711
:0701FD007D807F8E0204D714
:100204007F8C120577EFC4540F75F00AA4FEEF54E7
:100214000F2EF51D7F88120577EFC4540F75F00A71
:10022400A4FEEF540F2EF51E7F86120577EFC454FB
:100234000F75F00AA4FEEF540F2EF51F7F841205EC
:1002440077EFC4540F75F00AA4FEEF540F2EF52077
:100254007F82120577EFC4540F75F00AA4FEEF54A1
:100264000F2EF5217F80120577EFC4540F75F00A25
:10027400A4FEEF540F2EF5227F8A120577EFC454A3
:0C0284000F75F00AA4FEEF540F2EF523B6
:01029000224B
:1004750020B1147F147E0012067630B1FD7F147E04
:10048500001206767F012220B0147F147E0012062A
:100495007630B0FD7F147E001206767F022220B2F0
:1004A500147F147E0012067630B2FD7F147E001292
:1004B50006767F032220B3147F147E001206763061
:0F04C500B3FD7F147E001206767F04227F002293
:10067600EF1FAC0670011E4C600B007D027CC7DCD0
:05068600FEDDFC80EB2D
:01068B00224C
:0306CB0030780084
:0B039F0024FFFDE434FFFC7F0A7E0019
:0803AA008E0E8F0F8D828C83F3
:1003B200E4751401F513F512F511D3E5829400E505
:1003C200839400402B858210E510D394004030AB1B
:1003D20014AA13A912A811AE0EAF0FEE3395E0FDC9
:1003E200FC1200308F148E138D128C11151080D8D0
:1003F200E58245837009751401F513F512F511AF05
:0704020014AE13AD12AC11A2
:0104090022D0
:10065E00C2A5C2A68F80D2A77F017E00120676C2E7
:08066E00A77F017E0002067661
:1005F2001200BBE47B0AFAF9F81200BBEB2430FFCD
:10060200C2A5D2A68F80D2A77F017E00120676C233
:08061200A77F017E00020676BD
:10068C007F3812065E7F0C12065E7F0612065E7FB6
:04069C000102065EF3
:100640008F0E8D0FE50EB40105E50F148009E50E40
:0E065000B4020AE50F243F4480FF12065E222A
:0A06BC008B28120640AF2802060248
:06061A008B088A09890A21
:10062000120640E4F50BAB08AA09A90A850B8275EE
:0F0630008300120003FF6007120602050B80E72C
:01063F002298
:0405C5008A0A8B0B08
:1005C900120640850C0DE50DD39400401BE50D1274
:1005D900039FA804A905AA06AB07AE0AAF0BE4FC62
:0805E900FD1205F2150D80DE84
:0105F10022E7
:04040A008A178B18AA
:10040E00120640D3E5189400E517648094804007E7
:10041E007F2B1206028021C3E51764809480501250
:10042E007F2D120602C3E49518F51BE49517F51AF5
:10043E00800CE5184517700685171A85181B851947
:10044E001CE51CD39400401EE51C12039FA804A9B2
:10045E0005AA06AB07AE1AAF1BEE3395E0FDFC12F4
:06046E0005F2151C80DB05
:010474002265
:040528008A248B2571
:10052C007BFF7A0679CB12061A752701E527F46052
:10053C0039E52725E025E0FFAE24E525A80708804E
:10054C0005CEC313CE13D8F9540FF526C3940A5015
:10055C0006E5262430800BE526C3940A4008E526E0
:0A056C002437FF120602152780C293
:010576002262
:0300000002029168
:0C029100787FE4F6D8FD7581280202D8C1
:10000300BB010CE58229F582E5833AF583E02250B2
:1000130006E92582F8E622BBFE06E92582F8E222FC
:0D002300E58229F582E5833AF583E4932216
:10003000E88FF0A4CC8BF0A42CFCE98EF0A42CFC6F
:100040008AF0EDA42CFCEA8EF0A4CDA8F08BF0A4ED
:100050002DCC3825F0FDE98FF0A42CCD35F0FCEB4C
:100060008EF0A4FEA9F0EB8FF0A4CFC5F02ECD3911
:0F007000FEE43CFCEAA42DCE35F0FDE43CFC227E
:10007F0075F008758200EF2FFFEE33FECD33CDCC38
:10008F0033CCC58233C5829BED9AEC99E5829840BB
:10009F000CF582EE9BFEED9AFDEC99FC0FD5F0D698
:1000AF00E4CEFBE4CDFAE4CCF9A88222B800C1B9C2
:1000BF000059BA002DEC8BF084CFCECDFCE5F0CB00
:1000CF00F97818EF2FFFEE33FEED33FDEC33FCEB39
:1000DF0033FB10D703994004EB99FB0FD8E5E4F9F4
:1000EF00FA227818EF2FFFEE33FEED33FDEC33FCE1
:1000FF00C933C910D7059BE99A4007EC9BFCE99AD5
:10010F00F90FD8E0E4C9FAE4CCFB2275F010EF2F19
:10011F00FFEE33FEED33FDCC33CCC833C810D70719
:10012F009BEC9AE899400AED9BFDEC9AFCE899F854
:0E013F000FD5F0DAE4CDFBE4CCFAE4C8F922E7
:10029D0002031DE493A3F8E493A34003F68001F257
:1002AD0008DFF48029E493A3F85407240CC8C33362
:1002BD00C4540F4420C8834004F456800146F6DF31
:1002CD00E4800B01020408102040809006B2E47E09
:1002DD00019360BCA3FF543F30E509541FFEE49326
:1002ED00A360010ECF54C025E060A840B8E493A3ED
:1002FD00FAE493A3F8E493A3C8C582C8CAC583CA18
:10030D00F0A3C8C582C8CAC583CADFE9DEE780BECF
:0106BB00003E
:00000001FF
