:10014F007D0A7F011200031200C88F08E50860F7CF
:10015F007F327E00120127AD087F0112000380E776
:10016F00EF1FAC0670011E4C600B007D027CC7DCDC
:05017F00FEDDFC80EB39
:010184002258
:1000C80020B1147F147E0012016F30B1FD7F147EC1
:1000D8000012016F7F012220B0147F147E001201EC
:1000E8006F30B0FD7F147E0012016F7F022220B2B4
:1000F800147F147E0012016F30B2FD7F147E00124F
:10010800016F7F032220B3147F147E0012016F3029
:0F011800B3FD7F147E0012016F7F04227F00224F
:040127008E098F0AA4
:10012B00E4F50BF50CC3E50C950AE50B950950139B
:10013B00B2A57F017E0012016F050CE50C70E60580
:03014B000B80E244
:01014E00228E
:10000300EF14B40800505490001875F003A4C5838E
:1000130025F0C5837302003002003402003C020065
:100023004002004802004C020054020058D2A28051
:1000330002C2A2D2A3D2A48022D2A28002C2A2C2AE
:10004300A3D2A48016D2A28002C2A2D2A3C2A48049
:100053000AD2A28002C2A2C2A3C2A4EDB40B005072
:100063005D90006BF82828730200B902008C02002F
:100073009102009602009B0200A00200A50200AAC2
:100083000200AF0200B40200BE75800680307580A6
:100093005B802B75804F8026758066802175806D0F
:1000A300801C75807D8017758007801275807F8026
:1000B3000D75806F800875803F8003E4F5807F01B4
:0500C3007E0002016F48
:0300000002018575
:0C018500787FE4F6D8FD75810C02014F74
:00000001FF
