:10022B00011100011300011200021400000116005D
:10023B00011700011A00011B000118000119000928
:0D024B0008FFFFFFFFFFFFFFFFFF011C008A
:1000E100120259E511C3943C5011E51175F00A84CF
:1000F100F516E51175F00A8485F017E511C3943CF6
:1001010040390513E4F511E513943C5011E51375DD
:10011100F00A84F51AE51375F00A8485F01BE513DE
:10012100C3943C40160512E4F513E51275F00A84F8
:10013100F518E51275F00A8485F0198518098519F5
:100141000A750B64851A0C851B0D750E6485160FD7
:10015100851710751C01E51CD39408508674082579
:0D0161001CF8E6FDAF1C12000E051C80E925
:03000B000201FAF5
:1001FA00C0E0C0D0758A18758CFC0515E51570022B
:10020A000514C394E8E51494034011751400751598
:10021A00000511E511943C400375113CD0D0D0E0A3
:01022A0032A1
:10027600EF1FAC0670011E4C600B007D027CC7DCD4
:05028600FEDDFC80EB31
:01028B002250
:100259005389F0438901D28CC28D758A18758CFC3B
:0D026900D2A9D2AF53B7FD43B702D2B922DC
:10000E00E4F580EF14B40800505490002675F00308
:10001E00A4C58325F0C5837302003E020042020090
:10002E004A02004E02005602005A020062020066A8
:10003E00D2A28002C2A2D2A3D2A48022D2A28002D5
:10004E00C2A2C2A3D2A48016D2A28002C2A2D2A3FE
:10005E00C2A4800AD2A28002C2A2C2A3C2A4ED246C
:10006E009C60612465606214B40A00505F90008247
:10007E00F82828730200CD0200A00200A50200AAF3
:10008E000200AF0200B40200B90200BE0200C302B9
:10009E0000C8758006803575805B803075804F8016
:1000AE002B758066802675806D802175807D801C05
:1000BE00758007801775807F801275806F800D7533
:1000CE00803F80087580808003E4F5807F017E008C
:0300DE00020276A5
:0300000002016E8C
:0C016E00787FE4F6D8FD75811C0201B515
:10017A000200E1E493A3F8E493A34003F68001F2BA
:10018A0008DFF48029E493A3F85407240CC8C33386
:10019A00C4540F4420C8834004F456800146F6DF55
:1001AA00E4800B010204081020408090022BE47EB8
:1001BA00019360BCA3FF543F30E509541FFEE4934A
:1001CA00A360010ECF54C025E060A840B8E493A311
:1001DA00FAE493A3F8E493A3C8C582C8CAC583CA3C
:1001EA00F0A3C8C582C8CAC583CADFE9DEE780BEF4
:0102580000A5
:00000001FF
