:10008F00206808000000000000000000C3C3FFFF4D
:10009F00C3C30000FFFF0303030300007E818181C0
:1000AF00817E0000700C02020C700000FF9999997C
:1000BF00999900007C020202027C00007E424242BB
:1000CF003C000000C0603E3E60C000000046427E23
:1000DF00400000000000FBFB00000070F8FC7E7E7B
:0B00EF00FCF8700000000000000000A2
:1000FB00E4F572F573E4F570E57025722408F8E603
:10010B00FDAF701201620570E570C3940840E905FC
:10011B0073E573C3940840DDE4F5730572E57294DF
:08012B006040D2E4F57280CDC2
:02013300AD0716
:10013500E4FC7E007480A804088006CEA2E713CEF6
:1001450013D8F8FFEDFBEF5B6003D38001C392B4D6
:0C015500C2B6D2B60CBC08DAC2B5D2B5F6
:01016100227B
:10016200AE05EF14FFF87480088002C313D8FCF4C4
:10017200F580AF061201337F017E001201A1758066
:02018200FF225A
:1001A100EF1FAC0670011E4C600B007D027CC7DCAA
:0501B100FEDDFC80EB07
:0101B6002226
:100184005389F0438901D28CC28D758A18758CFC11
:0D019400D2A9D2AF53B7FD43B702D2B922B2
:03000000020003F8
:0C000300787FE4F6D8FD75817302004A96
:10000F000200FBE493A3F8E493A34003F68001F20C
:10001F0008DFF48029E493A3F85407240CC8C333F2
:10002F00C4540F4420C8834004F456800146F6DFC1
:10003F00E4800B010204081020408090008FE47EC2
:10004F00019360BCA3FF543F30E509541FFEE493B6
:10005F00A360010ECF54C025E060A840B8E493A37D
:10006F00FAE493A3F8E493A3C8C582C8CAC583CAA8
:10007F00F0A3C8C582C8CAC583CADFE9DEE780BE60
:0100FA000005
:00000001FF
