:1000E200EF1FAC0670011E4C600B007D027CC7DC6A
:0500F200FEDDFC80EBC7
:0100F70022E6
:10000300EF14B40800505490001875F003A4C5838E
:1000130025F0C5837302003002003402003C020065
:100023004002004802004C020054020058D2A28051
:1000330002C2A2D2A3D2A48022D2A28002C2A2C2AE
:10004300A3D2A48016D2A28002C2A2D2A3C2A48049
:100053000AD2A28002C2A2C2A3C2A4ED14B40900B0
:10006300505490007375F003A4C58325F0C58373C2
:1000730002008E02009302009802009D0200A20279
:1000830000A70200AC0200B10200B675800680260C
:1000930075805B802175804F801C75806680177525
:1000A300806D801275807D800D7580078008758056
:1000B3007F800375806F7F017E001200E2E4F5808C
:0100C300221A
:1000C400E4FBFA0B0AEBD3940840027B01EAD394D5
:0E00D4000840027A01AF03AD0212000380E57E
:030000000200F803
:0C00F800787FE4F6D8FD7581070200C493
:00000001FF
