:0E028100010C01010D00020801F4020A000048
:0201F700AD0752
:1001F900E4FC7E007480A804088006CEA2E713CE32
:1002090013D8F8FFEDFBEF5B6003D38001C392B411
:0C021900C2B6D2B60CBC08DAC2B5D2B531
:0102250022B6
:040226007D847F0351
:10022A00AE05AA07AF061201F7EA14FFF8748008B0
:10023A008002C313D8FCF4F5807F017E0012026BA2
:04024A007580FF229A
:10000E0012024EE50C14B4070050F890002775F05C
:10001E0003A4C58325F0C5837302003C02004A0287
:10002E00005F02007D02009F0200C10200E7120283
:10003E00267DFC7F0412022A7D8480107DFC7F03C6
:10004E0012022A7D047F0412022A7D047F0502001B
:10005E00E17D787F0212022A1202267D847F04122D
:10006E00022A7D847F0512022A7D787F0680647DB8
:10007E00E07F0212022A7D187F0312022A7D047F7E
:10008E000412022A7D187F0512022A7DE07F068067
:10009E00427DFE7F0212022A7D927F0312022A7D8A
:1000AE00927F0412022A7D927F0512022A7D927F90
:1000BE000680207DF87F0212022A7D047F03120241
:1000CE002A7D047F0412022A7D047F0512022A7DF6
:1000DE00F87F0612022A0200117D707F0112022A99
:1000EE007D887F0212022A1202267D427F041202AE
:1000FE002A7D427F0512022A7D847F0612022A7D06
:10010E00887F0712022A7D707F0812022A020011D0
:03000B000201AA45
:0401AA00C0E0C0D021
:1001AE00758A18758CFC050BE50B7002050AC39554
:1001BE0009E50A9508402D750A00750B00050CE53A
:1001CE000C940750028017E50CB4070875080775E4
:1001DE0009D08010E50CD394074009750C01750801
:0401EE00017509F49A
:0501F200D0D0D0E03286
:10024E005389F0438901D28CC28D758A18758CFC46
:0D025E00D2A9D2AF53B7FD43B702D2B922E7
:10026B00EF1FAC0670011E4C600B007D027CC7DCDF
:05027B00FEDDFC80EB3C
:01028000225B
:0300000002011EDC
:0C011E00787FE4F6D8FD75810D020165C4
:10012A0002000EE493A3F8E493A34003F68001F2DD
:10013A0008DFF48029E493A3F85407240CC8C333D6
:10014A00C4540F4420C8834004F456800146F6DFA5
:10015A00E4800B0102040810204080900281E47EB2
:10016A00019360BCA3FF543F30E509541FFEE4939A
:10017A00A360010ECF54C025E060A840B8E493A361
:10018A00FAE493A3F8E493A3C8C582C8CAC583CA8C
:10019A00F0A3C8C582C8CAC583CADFE9DEE780BE44
:01028F00006E
:00000001FF
