:1000CF00E4F50C1201D8E4F50AF50B120137BF0164
:1000DF000C050CE50CD394044003E4F50CBF0203AC
:1000EF00E4F50CE50C7006F50AF50B8032E50CB45F
:1000FF000108750A00750B238025E50CB4020875FD
:10010F000A00750B328018E50CB40308750A0075E8
:10011F000B4B800BE50CB40406750A00750B64AD30
:08012F000C7F0112000E80A3F9
:03000B0002019659
:10019600C0E0C0D0758AA4758CFF0509E509700218
:1001A6000508C39464E508940040067508007509BF
:1001B60000C3E509950BE508950A5004D290800D19
:1001C600C3E509950BE508950A4002C290D0D0D048
:0201D600E03215
:1001F500EF1FAC0670011E4C600B007D027CC7DC56
:05020500FEDDFC80EBB2
:01020A0022D1
:10000E00EF14B40800505490002375F003A4C58378
:10001E0025F0C5837302003B02003F020047020039
:10002E004B02005302005702005F020063D2A2800F
:10003E0002C2A2D2A3D2A48022D2A28002C2A2C2A3
:10004E00A3D2A48016D2A28002C2A2D2A3C2A4803E
:10005E000AD2A28002C2A2C2A3C2A4EDB40A005068
:10006E0055900076F82828730200C1020094020011
:10007E009902009E0200A30200A80200AD0200B287
:10008E000200B70200BC758006802B75805B80264F
:10009E0075804F8021758066801C75806D80177508
:1000AE00807D8012758007800D75807F8008758039
:1000BE006F800375803F7F017E001201F5E4F580AD
:0100CE00220F
:1001D8005389F0438901D28CC28D758AA4758CFF2E
:0D01E800D2A9D2AF53B7FD43B702D2B9225E
:1001370020B1147F147E001201F530B1FD7F147ECB
:10014700001201F57F012220B0147F147E001201F6
:10015700F530B0FD7F147E001201F57F022220B238
:10016700147F147E001201F530B2FD7F147E001259
:1001770001F57F032220B3147F147E001201F530AE
:0F018700B3FD7F147E001201F57F04227F00225A
:0300000002020BEE
:0C020B00787FE4F6D8FD75810C0200CF6E
:00000001FF
