:040060007F147E008B
:10006400EF1FAC0670011E4C600B007D027CC7DCE8
:05007400FEDDFC80EB45
:010079002264
:10000300E4FB75A0FE20B12812006030B1FD1200A0
:1000130060D3EB6480948050047F078003EB14FF6C
:10002300AB07A8037401088002C333D8FCF4F5A01E
:1000330020B0D212006030B0FD120060C3EB6480C8
:10004300948740047F008003EB04FFAB07A803748D
:0D00530001088002C333D8FCF4F5A080A89A
:0300000002007A81
:0C007A00787FE4F6D8FD758107020003D2
:00000001FF
