:0903DF00FFFFFFFFFFFFFFFFFF1E
:10034C00E4F508750901F50A780B7C00FD7BFF7A52
:10035C000379DFFE7F0912025D1200038F0AE50AA2
:10036C00C394004019E50AD394095012740B250963
:10037C00F8A60A0509E509D39408401B8016E50A7E
:10038C00B41014750801740B2508F876FF0508E500
:10039C0008B409F2750901750801E508D3940850F1
:1003AC00B8740B2508F8E6FDAF0812028305088027
:0103BC00E957
:1003BD00EF1FAC0670011E4C600B007D027CC7DC8C
:0503CD00FEDDFC80EBE9
:0103D2002208
:10028300E4F580EF14B40800505490029B75F0031A
:10029300A4C58325F0C583730202B30202B7020229
:1002A300BF0202C30202CB0202CF0202D70202DB69
:1002B300D2A28002C2A2D2A3D2A48022D2A280025E
:1002C300C2A2C2A3D2A48016D2A28002C2A2D2A387
:1002D300C2A4800AD2A28002C2A2C2A3C2A4ED0415
:1002E300605D14B40A00505A9002F2F82828730291
:1002F300033D02031002031502031A02031F020344
:100303002402032902032E020333020338758006F5
:10031300803075805B802B75804F8026758066806A
:100323002175806D801C75807D8017758007801214
:1003330075807F800D75806F800875803F8003E432
:09034300F5807F017E000203BD7C
:100003007514FF7590FFC2932097147F147E00121E
:1000130003BD3097FD7F147E001203BD75140120CC
:1000230096147F147E001203BD3096FD7F147E006C
:100033001203BD7514052095147F147E001203BDB1
:100043003095FD7F147E001203BD751409209414AE
:100053007F147E001203BD3094FD7F147E001203D3
:10006300BD75140D7590FFC2922097147F147E0006
:100073001203BD3097FD7F147E001203BD75140279
:100083002096147F147E001203BD3096FD7F147EEC
:10009300001203BD7514062095147F147E0012030D
:1000A300BD3095FD7F147E001203BDE4F51420944A
:1000B300147F147E001203BD3094FD7F147E001262
:1000C30003BD75140E7590FFC2912097147F147EA3
:1000D300001203BD3097FD7F147E001203BD75141B
:1000E300032096147F147E001203BD3096FD7F1407
:1000F3007E001203BD7514072095147F147E001231
:1001030003BD3095FD7F147E001203BD75140B20D3
:1001130094147F147E001203BD3094FD7F147E007F
:100123001203BD75140F7590FFC2902097147F14AE
:100133007E001203BD3097FD7F147E001203BD7550
:1001430014042096147F147E001203BD3096FD7FA5
:10015300147E001203BD7514082095147F147E00CD
:100163001203BD3095FD7F147E001203BD75140C80
:100173002094147F147E001203BD3094FD7F147EFF
:09018300001203BD751410AF1445
:01018C002250
:030000000203D325
:0C03D300787FE4F6D8FD75811402034C1D
:10018D00E709F608DFFA8046E709F208DFFA803E54
:10019D0088828C83E709F0A3DFFA8032E309F60841
:1001AD00DFFA8078E309F208DFFA807088828C83A9
:1001BD00E309F0A3DFFA806489828A83E0A3F6085D
:1001CD00DFFA805889828A83E0A3F208DFFA804C37
:1001DD0080D280FA80C680D4806980F2803380100E
:1001ED0080A680EA809A80A880DA80E280CA803377
:1001FD0089828A83ECFAE493A3C8C582C8CCC583EF
:10020D00CCF0A3C8C582C8CCC583CCDFE9DEE780BE
:10021D000D89828A83E493A3F608DFF9ECFAA9F03D
:10022D00EDFB2289828A83ECFAE0A3C8C582C8CC93
:10023D00C583CCF0A3C8C582C8CCC583CCDFEADEAC
:10024D00E880DB89828A83E493A3F208DFF980CC0E
:10025D0088F0EF60010E4E60C388F0ED2402B40407
:10026D000050B9F582EB2402B4040050AF232345AE
:06027D0082239001DD73F5
:00000001FF
