:0A000E00010A00010B0002080000C7
:10010D001200B2E50A60FCE4F50AAF0B1200037FA2
:06011D004112000380ED19
:03000B000200E20E
:0400E200C0E0C0D0EA
:1000E600758CFC758A660509E50970020508C394D6
:1000F600E8E5089403400B750A01050B75080075C1
:020106000900EE
:05010800D0D0D0E03270
:03002300020019BF
:09001900309805C2988599A032C7
:10012300EF1FAC0670011E4C600B007D027CC7DC28
:05013300FEDDFC80EB85
:0101380022A4
:1000B20075985053877F758921758DFA758BFA75FE
:1000C2008CFC758A66C28FC28DD2A9C2ABD2AFD266
:1000D200ACD2BCC2B953B7E743B718D28ED28C2286
:080003008F993099FDC299228A
:03000000020026D5
:0C002600787FE4F6D8FD75810B02006DB8
:1000320002010DE493A3F8E493A34003F68001F2D6
:1000420008DFF48029E493A3F85407240CC8C333CF
:10005200C4540F4420C8834004F456800146F6DF9E
:10006200E4800B010204081020408090000EE47E20
:10007200019360BCA3FF543F30E509541FFEE49393
:10008200A360010ECF54C025E060A840B8E493A35A
:10009200FAE493A3F8E493A3C8C582C8CAC583CA85
:1000A200F0A3C8C582C8CAC583CADFE9DEE780BE3D
:0100180000E7
:00000001FF
